{
  "_format": "hh-sol-artifact-1",
  "contractName": "OpenMarkV4",
  "sourceName": "contracts/market/OpenMarkV4.sol",
  "abi": [
    {
      "inputs": [
        {
          "internalType": "address",
          "name": "_wrappedEth",
          "type": "address"
        }
      ],
      "stateMutability": "nonpayable",
      "type": "constructor"
    },
    {
      "inputs": [],
      "name": "InvalidShortString",
      "type": "error"
    },
    {
      "inputs": [
        {
          "internalType": "string",
          "name": "str",
          "type": "string"
        }
      ],
      "name": "StringTooLong",
      "type": "error"
    },
    {
      "anonymous": false,
      "inputs": [
        {
          "indexed": false,
          "internalType": "enum OpenMarkV4.OrderType",
          "name": "option",
          "type": "uint8"
        },
        {
          "indexed": false,
          "internalType": "address",
          "name": "nftContract",
          "type": "address"
        },
        {
          "indexed": false,
          "internalType": "uint256",
          "name": "tokenId",
          "type": "uint256"
        },
        {
          "indexed": false,
          "internalType": "uint256",
          "name": "price",
          "type": "uint256"
        },
        {
          "indexed": false,
          "internalType": "bytes32",
          "name": "salt",
          "type": "bytes32"
        },
        {
          "indexed": false,
          "internalType": "uint256",
          "name": "expiry",
          "type": "uint256"
        }
      ],
      "name": "Cancel",
      "type": "event"
    },
    {
      "anonymous": false,
      "inputs": [],
      "name": "EIP712DomainChanged",
      "type": "event"
    },
    {
      "anonymous": false,
      "inputs": [
        {
          "indexed": true,
          "internalType": "bytes32",
          "name": "role",
          "type": "bytes32"
        },
        {
          "indexed": true,
          "internalType": "bytes32",
          "name": "previousAdminRole",
          "type": "bytes32"
        },
        {
          "indexed": true,
          "internalType": "bytes32",
          "name": "newAdminRole",
          "type": "bytes32"
        }
      ],
      "name": "RoleAdminChanged",
      "type": "event"
    },
    {
      "anonymous": false,
      "inputs": [
        {
          "indexed": true,
          "internalType": "bytes32",
          "name": "role",
          "type": "bytes32"
        },
        {
          "indexed": true,
          "internalType": "address",
          "name": "account",
          "type": "address"
        },
        {
          "indexed": true,
          "internalType": "address",
          "name": "sender",
          "type": "address"
        }
      ],
      "name": "RoleGranted",
      "type": "event"
    },
    {
      "anonymous": false,
      "inputs": [
        {
          "indexed": true,
          "internalType": "bytes32",
          "name": "role",
          "type": "bytes32"
        },
        {
          "indexed": true,
          "internalType": "address",
          "name": "account",
          "type": "address"
        },
        {
          "indexed": true,
          "internalType": "address",
          "name": "sender",
          "type": "address"
        }
      ],
      "name": "RoleRevoked",
      "type": "event"
    },
    {
      "anonymous": false,
      "inputs": [
        {
          "indexed": false,
          "internalType": "enum OpenMarkV4.OrderType",
          "name": "option",
          "type": "uint8"
        },
        {
          "indexed": false,
          "internalType": "address",
          "name": "nftContract",
          "type": "address"
        },
        {
          "indexed": false,
          "internalType": "uint256",
          "name": "tokenId",
          "type": "uint256"
        },
        {
          "indexed": false,
          "internalType": "uint256",
          "name": "price",
          "type": "uint256"
        },
        {
          "indexed": false,
          "internalType": "bytes32",
          "name": "salt",
          "type": "bytes32"
        },
        {
          "indexed": false,
          "internalType": "address",
          "name": "seller",
          "type": "address"
        },
        {
          "indexed": false,
          "internalType": "address",
          "name": "buyer",
          "type": "address"
        },
        {
          "indexed": false,
          "internalType": "uint256",
          "name": "expiry",
          "type": "uint256"
        }
      ],
      "name": "Trade",
      "type": "event"
    },
    {
      "anonymous": false,
      "inputs": [
        {
          "indexed": false,
          "internalType": "uint256",
          "name": "amount",
          "type": "uint256"
        },
        {
          "indexed": false,
          "internalType": "uint256",
          "name": "timeStamp",
          "type": "uint256"
        }
      ],
      "name": "Withdraw",
      "type": "event"
    },
    {
      "inputs": [],
      "name": "ADMIN_ROLE",
      "outputs": [
        {
          "internalType": "bytes32",
          "name": "",
          "type": "bytes32"
        }
      ],
      "stateMutability": "view",
      "type": "function"
    },
    {
      "inputs": [],
      "name": "DEFAULT_ADMIN_ROLE",
      "outputs": [
        {
          "internalType": "bytes32",
          "name": "",
          "type": "bytes32"
        }
      ],
      "stateMutability": "view",
      "type": "function"
    },
    {
      "inputs": [],
      "name": "MAX_FEE",
      "outputs": [
        {
          "internalType": "uint256",
          "name": "",
          "type": "uint256"
        }
      ],
      "stateMutability": "view",
      "type": "function"
    },
    {
      "inputs": [],
      "name": "ORDER_TYPEHASH",
      "outputs": [
        {
          "internalType": "bytes32",
          "name": "",
          "type": "bytes32"
        }
      ],
      "stateMutability": "view",
      "type": "function"
    },
    {
      "inputs": [
        {
          "components": [
            {
              "internalType": "address payable",
              "name": "seller",
              "type": "address"
            },
            {
              "components": [
                {
                  "internalType": "address",
                  "name": "nftContract",
                  "type": "address"
                },
                {
                  "internalType": "uint256",
                  "name": "tokenId",
                  "type": "uint256"
                },
                {
                  "internalType": "uint256",
                  "name": "price",
                  "type": "uint256"
                },
                {
                  "internalType": "bytes32",
                  "name": "salt",
                  "type": "bytes32"
                },
                {
                  "internalType": "uint256",
                  "name": "expiry",
                  "type": "uint256"
                },
                {
                  "internalType": "enum OpenMarkV4.OrderType",
                  "name": "option",
                  "type": "uint8"
                }
              ],
              "internalType": "struct OpenMarkV4.Order",
              "name": "order",
              "type": "tuple"
            },
            {
              "internalType": "bytes",
              "name": "signature",
              "type": "bytes"
            }
          ],
          "internalType": "struct OpenMarkV4.Bag[]",
          "name": "bag",
          "type": "tuple[]"
        }
      ],
      "name": "batchBuy",
      "outputs": [],
      "stateMutability": "payable",
      "type": "function"
    },
    {
      "inputs": [
        {
          "internalType": "address payable",
          "name": "seller",
          "type": "address"
        },
        {
          "components": [
            {
              "internalType": "address",
              "name": "nftContract",
              "type": "address"
            },
            {
              "internalType": "uint256",
              "name": "tokenId",
              "type": "uint256"
            },
            {
              "internalType": "uint256",
              "name": "price",
              "type": "uint256"
            },
            {
              "internalType": "bytes32",
              "name": "salt",
              "type": "bytes32"
            },
            {
              "internalType": "uint256",
              "name": "expiry",
              "type": "uint256"
            },
            {
              "internalType": "enum OpenMarkV4.OrderType",
              "name": "option",
              "type": "uint8"
            }
          ],
          "internalType": "struct OpenMarkV4.Order",
          "name": "order",
          "type": "tuple"
        },
        {
          "internalType": "bytes",
          "name": "signature",
          "type": "bytes"
        }
      ],
      "name": "buy",
      "outputs": [],
      "stateMutability": "payable",
      "type": "function"
    },
    {
      "inputs": [
        {
          "components": [
            {
              "internalType": "address",
              "name": "nftContract",
              "type": "address"
            },
            {
              "internalType": "uint256",
              "name": "tokenId",
              "type": "uint256"
            },
            {
              "internalType": "uint256",
              "name": "price",
              "type": "uint256"
            },
            {
              "internalType": "bytes32",
              "name": "salt",
              "type": "bytes32"
            },
            {
              "internalType": "uint256",
              "name": "expiry",
              "type": "uint256"
            },
            {
              "internalType": "enum OpenMarkV4.OrderType",
              "name": "option",
              "type": "uint8"
            }
          ],
          "internalType": "struct OpenMarkV4.Order",
          "name": "order",
          "type": "tuple"
        },
        {
          "internalType": "bytes",
          "name": "signature",
          "type": "bytes"
        }
      ],
      "name": "cancelOrder",
      "outputs": [
        {
          "internalType": "bool",
          "name": "",
          "type": "bool"
        }
      ],
      "stateMutability": "nonpayable",
      "type": "function"
    },
    {
      "inputs": [],
      "name": "eip712Domain",
      "outputs": [
        {
          "internalType": "bytes1",
          "name": "fields",
          "type": "bytes1"
        },
        {
          "internalType": "string",
          "name": "name",
          "type": "string"
        },
        {
          "internalType": "string",
          "name": "version",
          "type": "string"
        },
        {
          "internalType": "uint256",
          "name": "chainId",
          "type": "uint256"
        },
        {
          "internalType": "address",
          "name": "verifyingContract",
          "type": "address"
        },
        {
          "internalType": "bytes32",
          "name": "salt",
          "type": "bytes32"
        },
        {
          "internalType": "uint256[]",
          "name": "extensions",
          "type": "uint256[]"
        }
      ],
      "stateMutability": "view",
      "type": "function"
    },
    {
      "inputs": [],
      "name": "getChainId",
      "outputs": [
        {
          "internalType": "uint256",
          "name": "",
          "type": "uint256"
        }
      ],
      "stateMutability": "view",
      "type": "function"
    },
    {
      "inputs": [
        {
          "internalType": "bytes32",
          "name": "role",
          "type": "bytes32"
        }
      ],
      "name": "getRoleAdmin",
      "outputs": [
        {
          "internalType": "bytes32",
          "name": "",
          "type": "bytes32"
        }
      ],
      "stateMutability": "view",
      "type": "function"
    },
    {
      "inputs": [
        {
          "internalType": "bytes32",
          "name": "role",
          "type": "bytes32"
        },
        {
          "internalType": "address",
          "name": "account",
          "type": "address"
        }
      ],
      "name": "grantRole",
      "outputs": [],
      "stateMutability": "nonpayable",
      "type": "function"
    },
    {
      "inputs": [
        {
          "internalType": "bytes32",
          "name": "role",
          "type": "bytes32"
        },
        {
          "internalType": "address",
          "name": "account",
          "type": "address"
        }
      ],
      "name": "hasRole",
      "outputs": [
        {
          "internalType": "bool",
          "name": "",
          "type": "bool"
        }
      ],
      "stateMutability": "view",
      "type": "function"
    },
    {
      "inputs": [
        {
          "internalType": "address payable",
          "name": "buyer",
          "type": "address"
        },
        {
          "components": [
            {
              "internalType": "address",
              "name": "nftContract",
              "type": "address"
            },
            {
              "internalType": "uint256",
              "name": "tokenId",
              "type": "uint256"
            },
            {
              "internalType": "uint256",
              "name": "price",
              "type": "uint256"
            },
            {
              "internalType": "bytes32",
              "name": "salt",
              "type": "bytes32"
            },
            {
              "internalType": "uint256",
              "name": "expiry",
              "type": "uint256"
            },
            {
              "internalType": "enum OpenMarkV4.OrderType",
              "name": "option",
              "type": "uint8"
            }
          ],
          "internalType": "struct OpenMarkV4.Order",
          "name": "order",
          "type": "tuple"
        },
        {
          "internalType": "bytes",
          "name": "signature",
          "type": "bytes"
        }
      ],
      "name": "offer",
      "outputs": [],
      "stateMutability": "payable",
      "type": "function"
    },
    {
      "inputs": [
        {
          "internalType": "bytes32",
          "name": "role",
          "type": "bytes32"
        },
        {
          "internalType": "address",
          "name": "account",
          "type": "address"
        }
      ],
      "name": "renounceRole",
      "outputs": [],
      "stateMutability": "nonpayable",
      "type": "function"
    },
    {
      "inputs": [
        {
          "internalType": "bytes32",
          "name": "role",
          "type": "bytes32"
        },
        {
          "internalType": "address",
          "name": "account",
          "type": "address"
        }
      ],
      "name": "revokeRole",
      "outputs": [],
      "stateMutability": "nonpayable",
      "type": "function"
    },
    {
      "inputs": [
        {
          "internalType": "uint256",
          "name": "_transactionFee",
          "type": "uint256"
        }
      ],
      "name": "setTransactionFee",
      "outputs": [],
      "stateMutability": "nonpayable",
      "type": "function"
    },
    {
      "inputs": [
        {
          "internalType": "bytes4",
          "name": "interfaceId",
          "type": "bytes4"
        }
      ],
      "name": "supportsInterface",
      "outputs": [
        {
          "internalType": "bool",
          "name": "",
          "type": "bool"
        }
      ],
      "stateMutability": "view",
      "type": "function"
    },
    {
      "inputs": [],
      "name": "transactionFee",
      "outputs": [
        {
          "internalType": "uint256",
          "name": "",
          "type": "uint256"
        }
      ],
      "stateMutability": "view",
      "type": "function"
    },
    {
      "inputs": [
        {
          "internalType": "bytes",
          "name": "",
          "type": "bytes"
        }
      ],
      "name": "usedSignatures",
      "outputs": [
        {
          "internalType": "bool",
          "name": "",
          "type": "bool"
        }
      ],
      "stateMutability": "view",
      "type": "function"
    },
    {
      "inputs": [
        {
          "components": [
            {
              "internalType": "address",
              "name": "nftContract",
              "type": "address"
            },
            {
              "internalType": "uint256",
              "name": "tokenId",
              "type": "uint256"
            },
            {
              "internalType": "uint256",
              "name": "price",
              "type": "uint256"
            },
            {
              "internalType": "bytes32",
              "name": "salt",
              "type": "bytes32"
            },
            {
              "internalType": "uint256",
              "name": "expiry",
              "type": "uint256"
            },
            {
              "internalType": "enum OpenMarkV4.OrderType",
              "name": "option",
              "type": "uint8"
            }
          ],
          "internalType": "struct OpenMarkV4.Order",
          "name": "order",
          "type": "tuple"
        },
        {
          "internalType": "bytes",
          "name": "signature",
          "type": "bytes"
        }
      ],
      "name": "verify",
      "outputs": [
        {
          "internalType": "address",
          "name": "",
          "type": "address"
        }
      ],
      "stateMutability": "view",
      "type": "function"
    },
    {
      "inputs": [],
      "name": "withdraw",
      "outputs": [],
      "stateMutability": "nonpayable",
      "type": "function"
    },
    {
      "inputs": [
        {
          "internalType": "address",
          "name": "_tokenContract",
          "type": "address"
        },
        {
          "internalType": "uint256",
          "name": "_amount",
          "type": "uint256"
        }
      ],
      "name": "withdrawToken",
      "outputs": [],
      "stateMutability": "nonpayable",
      "type": "function"
    },
    {
      "inputs": [],
      "name": "wrappedEth",
      "outputs": [
        {
          "internalType": "address",
          "name": "",
          "type": "address"
        }
      ],
      "stateMutability": "view",
      "type": "function"
    },
    {
      "stateMutability": "payable",
      "type": "receive"
    }
  ],
  "bytecode": "0x61016060405260326004553480156200001757600080fd5b5060405162002b6e38038062002b6e8339810160408190526200003a9162000394565b604051806040016040528060088152602001674f70656e4d61726b60c01b815250604051806040016040528060018152602001603160f81b8152506001808190555062000097600283620001aa60201b620010d61790919060201c565b61012052620000b4816003620001aa602090811b620010d617901c565b61014052815160208084019190912060e052815190820120610100524660a0526200014260e05161010051604080517f8b73c3c69bb8fe3d512ecc4cf759cc79239f7b179b0ffacaa9a75d522b39400f60208201529081019290925260608201524660808201523060a082015260009060c00160405160208183030381529060405280519060200120905090565b60805250503060c05262000158600033620001fe565b620001847fa49807205ce4d355092ef5a8a18f56e8913cf4a201fbe287825b095693c2177533620001fe565b600580546001600160a01b0319166001600160a01b03929092169190911790556200047d565b6000602083511015620001ca57620001c2836200029f565b9050620001f8565b82620001e183620002eb60201b6200110d1760201c565b8151620001f29260200190620002ee565b5060ff90505b92915050565b6000828152602081815260408083206001600160a01b038516845290915290205460ff166200029b576000828152602081815260408083206001600160a01b03851684529091529020805460ff191660011790556200025a3390565b6001600160a01b0316816001600160a01b0316837f2f8788117e7eff1d82e926ec794901d17c78024a50270940304540a733656f0d60405160405180910390a45b5050565b600080829050601f81511115620002d6578260405163305a27a960e01b8152600401620002cd9190620003c6565b60405180910390fd5b8051620002e3826200041e565b179392505050565b90565b828054620002fc9062000446565b90600052602060002090601f0160209004810192826200032057600085556200036b565b82601f106200033b57805160ff19168380011785556200036b565b828001600101855582156200036b579182015b828111156200036b5782518255916020019190600101906200034e565b50620003799291506200037d565b5090565b5b808211156200037957600081556001016200037e565b600060208284031215620003a757600080fd5b81516001600160a01b0381168114620003bf57600080fd5b9392505050565b600060208083528351808285015260005b81811015620003f557858101830151858201604001528201620003d7565b8181111562000408576000604083870101525b50601f01601f1916929092016040019392505050565b8051602080830151919081101562000440576000198160200360031b1b821691505b50919050565b600181811c908216806200045b57607f821691505b602082108114156200044057634e487b7160e01b600052602260045260246000fd5b60805160a05160c05160e051610100516101205161014051612696620004d86000396000610aa001526000610a750152600061181e015260006117f6015260006117510152600061177b015260006117a501526126966000f3fe6080604052600436106101445760003560e01c806384b0196e116100b6578063c0d94e8d1161006f578063c0d94e8d14610383578063d318355514610396578063d486da41146103a9578063d547741f146103c9578063e949580e146103e9578063f973a2091461042457600080fd5b806384b0196e146102da57806391d14854146103025780639e281a98146103225780639ed3edf014610342578063a217fddf14610358578063bc063e1a1461036d57600080fd5b80632f2ff15d116101085780632f2ff15d146102305780633408e4701461025057806336568abe146102635780633ccfd60b1461028357806368ca883a1461029857806375b238fc146102b857600080fd5b806301ffc9a714610150578063096a8ab71461018557806315c96c91146101a757806317cb3677146101df578063248a9ca3146101f257600080fd5b3661014b57005b600080fd5b34801561015c57600080fd5b5061017061016b366004611d7a565b610458565b60405190151581526020015b60405180910390f35b34801561019157600080fd5b506101a56101a0366004611da4565b61048f565b005b3480156101b357600080fd5b506101c76101c2366004611f43565b61050f565b6040516001600160a01b03909116815260200161017c565b6101a56101ed366004611f92565b610599565b3480156101fe57600080fd5b5061022261020d366004611da4565b60009081526020819052604090206001015490565b60405190815260200161017c565b34801561023c57600080fd5b506101a561024b366004611ff4565b610980565b34801561025c57600080fd5b5046610222565b34801561026f57600080fd5b506101a561027e366004611ff4565b6109a5565b34801561028f57600080fd5b506101a5610a23565b3480156102a457600080fd5b506005546101c7906001600160a01b031681565b3480156102c457600080fd5b5061022260008051602061264183398151915281565b3480156102e657600080fd5b506102ef610a67565b60405161017c9796959493929190612080565b34801561030e57600080fd5b5061017061031d366004611ff4565b610af0565b34801561032e57600080fd5b506101a561033d366004612116565b610b19565b34801561034e57600080fd5b5061022260045481565b34801561036457600080fd5b50610222600081565b34801561037957600080fd5b506102226101f481565b6101a5610391366004611f92565b610bba565b6101a56103a4366004612142565b610f35565b3480156103b557600080fd5b506101706103c4366004611f43565b610fb5565b3480156103d557600080fd5b506101a56103e4366004611ff4565b6110b1565b3480156103f557600080fd5b5061017061040436600461225f565b805160208183018101805160068252928201919093012091525460ff1681565b34801561043057600080fd5b506102227f3418219216a4cf51ce6ddb480636d24da2b562fa14103cf42d1fb14fb186fde781565b60006001600160e01b03198216637965db0b60e01b148061048957506301ffc9a760e01b6001600160e01b03198316145b92915050565b6000805160206126418339815191526104a781611110565b6101f48211156105095760405162461bcd60e51b815260206004820152602260248201527f4f50454e4d41524b3a205472616e73616374696f6e2066656520696e76616c69604482015261321760f11b60648201526084015b60405180910390fd5b50600455565b6000806105857f3418219216a4cf51ce6ddb480636d24da2b562fa14103cf42d1fb14fb186fde7856000015186602001518760400151886060015189608001518a60a0015160405160200161056a97969594939291906122cc565b6040516020818303038152906040528051906020012061111d565b9050610591818461114a565b949350505050565b6105a161116e565b6006816040516105b19190612317565b9081526040519081900360200190205460ff16156105e15760405162461bcd60e51b815260040161050090612333565b60008260400151116106305760405162461bcd60e51b815260206004820152601860248201527727a822a726a0a9259d1024b73b30b634b210383934b1b29760411b6044820152606401610500565b428260800151116106535760405162461bcd60e51b815260040161050090612374565b60018260a00151600181111561066b5761066b612294565b146106d75760405162461bcd60e51b815260206004820152603660248201527f4f50454e4d41524b3a204f726465722074797065206d757374206265204f666660448201527532b9103337b91037b33332b910333ab731ba34b7b71760511b6064820152608401610500565b826001600160a01b03166106eb838361050f565b6001600160a01b03161461074c5760405162461bcd60e51b815260206004820152602260248201527f4f50454e4d41524b3a20496e76616c6964206275796572207369676e61747572604482015261329760f11b6064820152608401610500565b815160208301516040516331a9108f60e11b8152600481019190915233916001600160a01b031690636352211e9060240160206040518083038186803b15801561079557600080fd5b505afa1580156107a9573d6000803e3d6000fd5b505050506040513d601f19601f820116820180604052508101906107cd91906123ba565b6001600160a01b0316146108235760405162461bcd60e51b815260206004820152601e60248201527f4f50454e4d41524b3a2053656c6c6572206973206e6f74206f776e65722e00006044820152606401610500565b600061084a6103e861084485604001516004546111c890919063ffffffff16565b906111db565b905060006108658285604001516111e790919063ffffffff16565b600554909150610880906001600160a01b03168633846111f3565b600554610898906001600160a01b03168630856111f3565b83516108aa9033878760200151611323565b60016006846040516108bc9190612317565b908152604051908190036020018120805492151560ff19909316929092179091556001906006906108ee908690612317565b908152602001604051809103902060006101000a81548160ff0219169083151502179055507fd7150d93971d6d41ecf9340fb8d2cc449273c1eb285f1d689e2759f552a84a678460a001518560000151866020015187604001518860600151338b8b608001516040516109689897969594939291906123d7565b60405180910390a1505061097b60018055565b505050565b60008281526020819052604090206001015461099b81611110565b61097b8383611457565b6001600160a01b0381163314610a155760405162461bcd60e51b815260206004820152602f60248201527f416363657373436f6e74726f6c3a2063616e206f6e6c792072656e6f756e636560448201526e103937b632b9903337b91039b2b63360891b6064820152608401610500565b610a1f82826114db565b5050565b600080516020612641833981519152610a3b81611110565b60405133904780156108fc02916000818181858888f19350505050158015610a1f573d6000803e3d6000fd5b600060608082808083610a9b7f00000000000000000000000000000000000000000000000000000000000000006002611540565b610ac67f00000000000000000000000000000000000000000000000000000000000000006003611540565b60408051600080825260208201909252600f60f81b9b939a50919850469750309650945092509050565b6000918252602082815260408084206001600160a01b0393909316845291905290205460ff1690565b600080516020612641833981519152610b3181611110565b60405163a9059cbb60e01b81523360048201526024810183905283906001600160a01b0382169063a9059cbb90604401602060405180830381600087803b158015610b7b57600080fd5b505af1158015610b8f573d6000803e3d6000fd5b505050506040513d601f19601f82011682018060405250810190610bb3919061242a565b5050505050565b610bc261116e565b600681604051610bd29190612317565b9081526040519081900360200190205460ff1615610c025760405162461bcd60e51b815260040161050090612333565b6000826040015111610c515760405162461bcd60e51b815260206004820152601860248201527727a822a726a0a9259d1024b73b30b634b210383934b1b29760411b6044820152606401610500565b42826080015111610c745760405162461bcd60e51b815260040161050090612374565b60008260a001516001811115610c8c57610c8c612294565b14610cf45760405162461bcd60e51b815260206004820152603260248201527f4f50454e4d41524b3a204f726465722074797065206d75737420626520427579604482015271103337b910313abc90333ab731ba34b7b71760711b6064820152608401610500565b826001600160a01b0316610d08838361050f565b6001600160a01b031614610d6a5760405162461bcd60e51b815260206004820152602360248201527f4f50454e4d41524b3a20496e76616c69642073656c6c6572207369676e61747560448201526239329760e91b6064820152608401610500565b815160208301516040516331a9108f60e11b815260048101919091526001600160a01b03858116921690636352211e9060240160206040518083038186803b158015610db557600080fd5b505afa158015610dc9573d6000803e3d6000fd5b505050506040513d601f19601f82011682018060405250810190610ded91906123ba565b6001600160a01b031614610e435760405162461bcd60e51b815260206004820152601e60248201527f4f50454e4d41524b3a2053656c6c6572206973206e6f74206f776e65722e00006044820152606401610500565b6000610e646103e861084485604001516004546111c890919063ffffffff16565b90506000610e7f8285604001516111e790919063ffffffff16565b9050610e8b85826115e4565b610e9530836115e4565b610ea9846000015186338760200151611323565b6001600684604051610ebb9190612317565b908152602001604051809103902060006101000a81548160ff0219169083151502179055507fd7150d93971d6d41ecf9340fb8d2cc449273c1eb285f1d689e2759f552a84a678460a0015185600001518660200151876040015188606001518a338b608001516040516109689897969594939291906123d7565b60005b8151811015610a1f57610fa3828281518110610f5657610f5661244c565b602002602001015160000151838381518110610f7457610f7461244c565b602002602001015160200151848481518110610f9257610f9261244c565b602002602001015160400151610bba565b80610fad81612478565b915050610f38565b600033610fc2848461050f565b6001600160a01b0316146110185760405162461bcd60e51b815260206004820152601c60248201527f4f50454e4d41524b3a20496e76616c6964207369676e61747572652e000000006044820152606401610500565b600160068360405161102a9190612317565b908152602001604051809103902060006101000a81548160ff0219169083151502179055507f73d8990d30788be662ecff7a54276852ef3fc78f856fd94e30bf653992504dd28360a00151846000015185602001518660400151876060015188608001516040516110a096959493929190612493565b60405180910390a150600192915050565b6000828152602081905260409020600101546110cc81611110565b61097b83836114db565b60006020835110156110f2576110eb836116ad565b9050610489565b828281516111039260200190611ce1565b5060ff9050610489565b90565b61111a81336116eb565b50565b600061048961112a611744565b8360405161190160f01b8152600281019290925260228201526042902090565b60008060006111598585611874565b91509150611166816118ba565b509392505050565b600260015414156111c15760405162461bcd60e51b815260206004820152601f60248201527f5265656e7472616e637947756172643a207265656e7472616e742063616c6c006044820152606401610500565b6002600155565b60006111d482846124d2565b9392505050565b60006111d482846124f1565b60006111d48284612513565b604080516001600160a01b0385811660248301528481166044830152606480830185905283518084039091018152608490920183526020820180516001600160e01b03166323b872dd60e01b17905291516000928392908816916112579190612317565b6000604051808303816000865af19150503d8060008114611294576040519150601f19603f3d011682016040523d82523d6000602084013e611299565b606091505b50915091508180156112c35750805115806112c35750808060200190518101906112c3919061242a565b61131b5760405162461bcd60e51b8152602060048201526024808201527f5472616e7366657248656c7065723a205452414e534645525f46524f4d5f46416044820152631253115160e21b6064820152608401610500565b505050505050565b604080516001600160a01b0385811660248301528481166044830152606480830185905283518084039091018152608490920183526020820180516001600160e01b0316632142170760e11b17905291516000928392908816916113879190612317565b6000604051808303816000865af19150503d80600081146113c4576040519150601f19603f3d011682016040523d82523d6000602084013e6113c9565b606091505b50915091508180156113f35750805115806113f35750808060200190518101906113f3919061242a565b61131b5760405162461bcd60e51b815260206004820152602f60248201527f5472616e7366657248656c7065723a205452414e534645525f46524f4d5f4e4660448201526e1517d15490cdcc8c57d19052531151608a1b6064820152608401610500565b6114618282610af0565b610a1f576000828152602081815260408083206001600160a01b03851684529091529020805460ff191660011790556114973390565b6001600160a01b0316816001600160a01b0316837f2f8788117e7eff1d82e926ec794901d17c78024a50270940304540a733656f0d60405160405180910390a45050565b6114e58282610af0565b15610a1f576000828152602081815260408083206001600160a01b0385168085529252808320805460ff1916905551339285917ff6391f5c32d9c69d2a47ea670b442974b53935d1edc7fd64eb21e047a839171b9190a45050565b606060ff8314611553576110eb83611a08565b81805461155f9061252a565b80601f016020809104026020016040519081016040528092919081815260200182805461158b9061252a565b80156115d85780601f106115ad576101008083540402835291602001916115d8565b820191906000526020600020905b8154815290600101906020018083116115bb57829003601f168201915b50505050509050610489565b604080516000808252602082019092526001600160a01b03841690839060405161160e9190612317565b60006040518083038185875af1925050503d806000811461164b576040519150601f19603f3d011682016040523d82523d6000602084013e611650565b606091505b505090508061097b5760405162461bcd60e51b815260206004820152602360248201527f5472616e7366657248656c7065723a204554485f5452414e534645525f46414960448201526213115160ea1b6064820152608401610500565b600080829050601f815111156116d8578260405163305a27a960e01b81526004016105009190612565565b80516116e382612578565b179392505050565b6116f58282610af0565b610a1f5761170281611a47565b61170d836020611a59565b60405160200161171e92919061259c565b60408051601f198184030181529082905262461bcd60e51b825261050091600401612565565b6000306001600160a01b037f00000000000000000000000000000000000000000000000000000000000000001614801561179d57507f000000000000000000000000000000000000000000000000000000000000000046145b156117c757507f000000000000000000000000000000000000000000000000000000000000000090565b61186f604080517f8b73c3c69bb8fe3d512ecc4cf759cc79239f7b179b0ffacaa9a75d522b39400f60208201527f0000000000000000000000000000000000000000000000000000000000000000918101919091527f000000000000000000000000000000000000000000000000000000000000000060608201524660808201523060a082015260009060c00160405160208183030381529060405280519060200120905090565b905090565b6000808251604114156118ab5760208301516040840151606085015160001a61189f87828585611bf5565b945094505050506118b3565b506000905060025b9250929050565b60008160048111156118ce576118ce612294565b14156118d75750565b60018160048111156118eb576118eb612294565b14156119395760405162461bcd60e51b815260206004820152601860248201527f45434453413a20696e76616c6964207369676e617475726500000000000000006044820152606401610500565b600281600481111561194d5761194d612294565b141561199b5760405162461bcd60e51b815260206004820152601f60248201527f45434453413a20696e76616c6964207369676e6174757265206c656e677468006044820152606401610500565b60038160048111156119af576119af612294565b141561111a5760405162461bcd60e51b815260206004820152602260248201527f45434453413a20696e76616c6964207369676e6174757265202773272076616c604482015261756560f01b6064820152608401610500565b60606000611a1583611cb9565b604080516020808252818301909252919250600091906020820181803683375050509182525060208101929092525090565b60606104896001600160a01b03831660145b60606000611a688360026124d2565b611a73906002612611565b67ffffffffffffffff811115611a8b57611a8b611dbd565b6040519080825280601f01601f191660200182016040528015611ab5576020820181803683370190505b509050600360fc1b81600081518110611ad057611ad061244c565b60200101906001600160f81b031916908160001a905350600f60fb1b81600181518110611aff57611aff61244c565b60200101906001600160f81b031916908160001a9053506000611b238460026124d2565b611b2e906001612611565b90505b6001811115611ba6576f181899199a1a9b1b9c1cb0b131b232b360811b85600f1660108110611b6257611b6261244c565b1a60f81b828281518110611b7857611b7861244c565b60200101906001600160f81b031916908160001a90535060049490941c93611b9f81612629565b9050611b31565b5083156111d45760405162461bcd60e51b815260206004820181905260248201527f537472696e67733a20686578206c656e67746820696e73756666696369656e746044820152606401610500565b6000807f7fffffffffffffffffffffffffffffff5d576e7357a4501ddfe92f46681b20a0831115611c2c5750600090506003611cb0565b6040805160008082526020820180845289905260ff881692820192909252606081018690526080810185905260019060a0016020604051602081039080840390855afa158015611c80573d6000803e3d6000fd5b5050604051601f1901519150506001600160a01b038116611ca957600060019250925050611cb0565b9150600090505b94509492505050565b600060ff8216601f81111561048957604051632cd44ac360e21b815260040160405180910390fd5b828054611ced9061252a565b90600052602060002090601f016020900481019282611d0f5760008555611d55565b82601f10611d2857805160ff1916838001178555611d55565b82800160010185558215611d55579182015b82811115611d55578251825591602001919060010190611d3a565b50611d61929150611d65565b5090565b5b80821115611d615760008155600101611d66565b600060208284031215611d8c57600080fd5b81356001600160e01b0319811681146111d457600080fd5b600060208284031215611db657600080fd5b5035919050565b634e487b7160e01b600052604160045260246000fd5b6040516060810167ffffffffffffffff81118282101715611df657611df6611dbd565b60405290565b604051601f8201601f1916810167ffffffffffffffff81118282101715611e2557611e25611dbd565b604052919050565b6001600160a01b038116811461111a57600080fd5b600060c08284031215611e5457600080fd5b60405160c0810181811067ffffffffffffffff82111715611e7757611e77611dbd565b6040529050808235611e8881611e2d565b808252506020830135602082015260408301356040820152606083013560608201526080830135608082015260a083013560028110611ec657600080fd5b60a0919091015292915050565b600082601f830112611ee457600080fd5b813567ffffffffffffffff811115611efe57611efe611dbd565b611f11601f8201601f1916602001611dfc565b818152846020838601011115611f2657600080fd5b816020850160208301376000918101602001919091529392505050565b60008060e08385031215611f5657600080fd5b611f608484611e42565b915060c083013567ffffffffffffffff811115611f7c57600080fd5b611f8885828601611ed3565b9150509250929050565b60008060006101008486031215611fa857600080fd5b8335611fb381611e2d565b9250611fc28560208601611e42565b915060e084013567ffffffffffffffff811115611fde57600080fd5b611fea86828701611ed3565b9150509250925092565b6000806040838503121561200757600080fd5b82359150602083013561201981611e2d565b809150509250929050565b60005b8381101561203f578181015183820152602001612027565b8381111561204e576000848401525b50505050565b6000815180845261206c816020860160208601612024565b601f01601f19169290920160200192915050565b60ff60f81b881681526000602060e0818401526120a060e084018a612054565b83810360408501526120b2818a612054565b606085018990526001600160a01b038816608086015260a0850187905284810360c0860152855180825283870192509083019060005b81811015612104578351835292840192918401916001016120e8565b50909c9b505050505050505050505050565b6000806040838503121561212957600080fd5b823561213481611e2d565b946020939093013593505050565b6000602080838503121561215557600080fd5b823567ffffffffffffffff8082111561216d57600080fd5b818501915085601f83011261218157600080fd5b81358181111561219357612193611dbd565b8060051b6121a2858201611dfc565b91825283810185019185810190898411156121bc57600080fd5b86860192505b83831015612252578235858111156121da5760008081fd5b8601610100818c03601f19018113156121f35760008081fd5b6121fb611dd3565b8983013561220881611e2d565b815260406122188e858301611e42565b828c015291830135918883111561222f5760008081fd5b61223d8e8c85870101611ed3565b908201528452505091860191908601906121c2565b9998505050505050505050565b60006020828403121561227157600080fd5b813567ffffffffffffffff81111561228857600080fd5b61059184828501611ed3565b634e487b7160e01b600052602160045260246000fd5b600281106122c857634e487b7160e01b600052602160045260246000fd5b9052565b8781526001600160a01b038716602082015260408101869052606081018590526080810184905260a0810183905260e0810161230b60c08301846122aa565b98975050505050505050565b60008251612329818460208701612024565b9190910192915050565b60208082526021908201527f4f50454e4d41524b3a205369676e617475726520616c726561647920757365646040820152601760f91b606082015260800190565b60208082526026908201527f4f50454e4d41524b3a2045787069726564206c697374696e67206f7220736f6c604082015265321037baba1760d11b606082015260800190565b6000602082840312156123cc57600080fd5b81516111d481611e2d565b61010081016123e6828b6122aa565b6001600160a01b03988916602083015260408201979097526060810195909552608085019390935290851660a084015290931660c082015260e00191909152919050565b60006020828403121561243c57600080fd5b815180151581146111d457600080fd5b634e487b7160e01b600052603260045260246000fd5b634e487b7160e01b600052601160045260246000fd5b600060001982141561248c5761248c612462565b5060010190565b60c081016124a182896122aa565b6001600160a01b0396909616602082015260408101949094526060840192909252608083015260a090910152919050565b60008160001904831182151516156124ec576124ec612462565b500290565b60008261250e57634e487b7160e01b600052601260045260246000fd5b500490565b60008282101561252557612525612462565b500390565b600181811c9082168061253e57607f821691505b6020821081141561255f57634e487b7160e01b600052602260045260246000fd5b50919050565b6020815260006111d46020830184612054565b8051602080830151919081101561255f5760001960209190910360031b1b16919050565b7f416363657373436f6e74726f6c3a206163636f756e74200000000000000000008152600083516125d4816017850160208801612024565b7001034b99036b4b9b9b4b733903937b6329607d1b6017918401918201528351612605816028840160208801612024565b01602801949350505050565b6000821982111561262457612624612462565b500190565b60008161263857612638612462565b50600019019056fea49807205ce4d355092ef5a8a18f56e8913cf4a201fbe287825b095693c21775a2646970667358221220c88790a5f5ff1188935be59b5d61c4089db5dfaf79bea5c4207b31402118babd64736f6c63430008090033",
  "linkReferences": {},
  "deployedLinkReferences": {}
}