{
  "_format": "hh-sol-artifact-1",
  "contractName": "OpenMarkV4",
  "sourceName": "contracts/market/OpenMarkV4.sol",
  "abi": [
    {
      "inputs": [
        {
          "internalType": "address",
          "name": "_wrappedEth",
          "type": "address"
        }
      ],
      "stateMutability": "nonpayable",
      "type": "constructor"
    },
    {
      "inputs": [],
      "name": "InvalidShortString",
      "type": "error"
    },
    {
      "inputs": [
        {
          "internalType": "string",
          "name": "str",
          "type": "string"
        }
      ],
      "name": "StringTooLong",
      "type": "error"
    },
    {
      "anonymous": false,
      "inputs": [
        {
          "indexed": false,
          "internalType": "enum OpenMarkV4.OrderType",
          "name": "option",
          "type": "uint8"
        },
        {
          "indexed": false,
          "internalType": "address",
          "name": "nftContract",
          "type": "address"
        },
        {
          "indexed": false,
          "internalType": "uint256",
          "name": "tokenId",
          "type": "uint256"
        },
        {
          "indexed": false,
          "internalType": "uint256",
          "name": "price",
          "type": "uint256"
        },
        {
          "indexed": false,
          "internalType": "uint256",
          "name": "saltNonce",
          "type": "uint256"
        },
        {
          "indexed": false,
          "internalType": "uint256",
          "name": "expiry",
          "type": "uint256"
        }
      ],
      "name": "Cancel",
      "type": "event"
    },
    {
      "anonymous": false,
      "inputs": [],
      "name": "EIP712DomainChanged",
      "type": "event"
    },
    {
      "anonymous": false,
      "inputs": [
        {
          "indexed": true,
          "internalType": "bytes32",
          "name": "role",
          "type": "bytes32"
        },
        {
          "indexed": true,
          "internalType": "bytes32",
          "name": "previousAdminRole",
          "type": "bytes32"
        },
        {
          "indexed": true,
          "internalType": "bytes32",
          "name": "newAdminRole",
          "type": "bytes32"
        }
      ],
      "name": "RoleAdminChanged",
      "type": "event"
    },
    {
      "anonymous": false,
      "inputs": [
        {
          "indexed": true,
          "internalType": "bytes32",
          "name": "role",
          "type": "bytes32"
        },
        {
          "indexed": true,
          "internalType": "address",
          "name": "account",
          "type": "address"
        },
        {
          "indexed": true,
          "internalType": "address",
          "name": "sender",
          "type": "address"
        }
      ],
      "name": "RoleGranted",
      "type": "event"
    },
    {
      "anonymous": false,
      "inputs": [
        {
          "indexed": true,
          "internalType": "bytes32",
          "name": "role",
          "type": "bytes32"
        },
        {
          "indexed": true,
          "internalType": "address",
          "name": "account",
          "type": "address"
        },
        {
          "indexed": true,
          "internalType": "address",
          "name": "sender",
          "type": "address"
        }
      ],
      "name": "RoleRevoked",
      "type": "event"
    },
    {
      "anonymous": false,
      "inputs": [
        {
          "indexed": false,
          "internalType": "enum OpenMarkV4.OrderType",
          "name": "option",
          "type": "uint8"
        },
        {
          "indexed": false,
          "internalType": "address",
          "name": "nftContract",
          "type": "address"
        },
        {
          "indexed": false,
          "internalType": "uint256",
          "name": "tokenId",
          "type": "uint256"
        },
        {
          "indexed": false,
          "internalType": "uint256",
          "name": "price",
          "type": "uint256"
        },
        {
          "indexed": false,
          "internalType": "address",
          "name": "seller",
          "type": "address"
        },
        {
          "indexed": false,
          "internalType": "address",
          "name": "buyer",
          "type": "address"
        },
        {
          "indexed": false,
          "internalType": "uint256",
          "name": "expiry",
          "type": "uint256"
        }
      ],
      "name": "Trade",
      "type": "event"
    },
    {
      "anonymous": false,
      "inputs": [
        {
          "indexed": false,
          "internalType": "uint256",
          "name": "amount",
          "type": "uint256"
        },
        {
          "indexed": false,
          "internalType": "uint256",
          "name": "timeStamp",
          "type": "uint256"
        }
      ],
      "name": "Withdraw",
      "type": "event"
    },
    {
      "inputs": [],
      "name": "ADMIN_ROLE",
      "outputs": [
        {
          "internalType": "bytes32",
          "name": "",
          "type": "bytes32"
        }
      ],
      "stateMutability": "view",
      "type": "function"
    },
    {
      "inputs": [],
      "name": "DEFAULT_ADMIN_ROLE",
      "outputs": [
        {
          "internalType": "bytes32",
          "name": "",
          "type": "bytes32"
        }
      ],
      "stateMutability": "view",
      "type": "function"
    },
    {
      "inputs": [],
      "name": "DOMAIN_SEPARATOR",
      "outputs": [
        {
          "internalType": "bytes32",
          "name": "",
          "type": "bytes32"
        }
      ],
      "stateMutability": "view",
      "type": "function"
    },
    {
      "inputs": [],
      "name": "MAX_FEE",
      "outputs": [
        {
          "internalType": "uint256",
          "name": "",
          "type": "uint256"
        }
      ],
      "stateMutability": "view",
      "type": "function"
    },
    {
      "inputs": [],
      "name": "ORDER_TYPEHASH",
      "outputs": [
        {
          "internalType": "bytes32",
          "name": "",
          "type": "bytes32"
        }
      ],
      "stateMutability": "view",
      "type": "function"
    },
    {
      "inputs": [
        {
          "components": [
            {
              "internalType": "address payable",
              "name": "seller",
              "type": "address"
            },
            {
              "components": [
                {
                  "internalType": "address",
                  "name": "nftContract",
                  "type": "address"
                },
                {
                  "internalType": "uint256",
                  "name": "tokenId",
                  "type": "uint256"
                },
                {
                  "internalType": "uint256",
                  "name": "price",
                  "type": "uint256"
                },
                {
                  "internalType": "uint256",
                  "name": "saltNonce",
                  "type": "uint256"
                },
                {
                  "internalType": "uint256",
                  "name": "expiry",
                  "type": "uint256"
                },
                {
                  "internalType": "enum OpenMarkV4.OrderType",
                  "name": "option",
                  "type": "uint8"
                }
              ],
              "internalType": "struct OpenMarkV4.Order",
              "name": "order",
              "type": "tuple"
            },
            {
              "internalType": "bytes",
              "name": "signature",
              "type": "bytes"
            }
          ],
          "internalType": "struct OpenMarkV4.Bag[]",
          "name": "bag",
          "type": "tuple[]"
        }
      ],
      "name": "batchBuy",
      "outputs": [],
      "stateMutability": "payable",
      "type": "function"
    },
    {
      "inputs": [
        {
          "internalType": "address payable",
          "name": "seller",
          "type": "address"
        },
        {
          "components": [
            {
              "internalType": "address",
              "name": "nftContract",
              "type": "address"
            },
            {
              "internalType": "uint256",
              "name": "tokenId",
              "type": "uint256"
            },
            {
              "internalType": "uint256",
              "name": "price",
              "type": "uint256"
            },
            {
              "internalType": "uint256",
              "name": "saltNonce",
              "type": "uint256"
            },
            {
              "internalType": "uint256",
              "name": "expiry",
              "type": "uint256"
            },
            {
              "internalType": "enum OpenMarkV4.OrderType",
              "name": "option",
              "type": "uint8"
            }
          ],
          "internalType": "struct OpenMarkV4.Order",
          "name": "order",
          "type": "tuple"
        },
        {
          "internalType": "bytes",
          "name": "signature",
          "type": "bytes"
        }
      ],
      "name": "buy",
      "outputs": [],
      "stateMutability": "payable",
      "type": "function"
    },
    {
      "inputs": [
        {
          "components": [
            {
              "internalType": "address",
              "name": "nftContract",
              "type": "address"
            },
            {
              "internalType": "uint256",
              "name": "tokenId",
              "type": "uint256"
            },
            {
              "internalType": "uint256",
              "name": "price",
              "type": "uint256"
            },
            {
              "internalType": "uint256",
              "name": "saltNonce",
              "type": "uint256"
            },
            {
              "internalType": "uint256",
              "name": "expiry",
              "type": "uint256"
            },
            {
              "internalType": "enum OpenMarkV4.OrderType",
              "name": "option",
              "type": "uint8"
            }
          ],
          "internalType": "struct OpenMarkV4.Order",
          "name": "order",
          "type": "tuple"
        },
        {
          "internalType": "bytes",
          "name": "signature",
          "type": "bytes"
        }
      ],
      "name": "cancelOrder",
      "outputs": [
        {
          "internalType": "bool",
          "name": "",
          "type": "bool"
        }
      ],
      "stateMutability": "nonpayable",
      "type": "function"
    },
    {
      "inputs": [],
      "name": "eip712Domain",
      "outputs": [
        {
          "internalType": "bytes1",
          "name": "fields",
          "type": "bytes1"
        },
        {
          "internalType": "string",
          "name": "name",
          "type": "string"
        },
        {
          "internalType": "string",
          "name": "version",
          "type": "string"
        },
        {
          "internalType": "uint256",
          "name": "chainId",
          "type": "uint256"
        },
        {
          "internalType": "address",
          "name": "verifyingContract",
          "type": "address"
        },
        {
          "internalType": "bytes32",
          "name": "salt",
          "type": "bytes32"
        },
        {
          "internalType": "uint256[]",
          "name": "extensions",
          "type": "uint256[]"
        }
      ],
      "stateMutability": "view",
      "type": "function"
    },
    {
      "inputs": [
        {
          "internalType": "bytes32",
          "name": "role",
          "type": "bytes32"
        }
      ],
      "name": "getRoleAdmin",
      "outputs": [
        {
          "internalType": "bytes32",
          "name": "",
          "type": "bytes32"
        }
      ],
      "stateMutability": "view",
      "type": "function"
    },
    {
      "inputs": [
        {
          "internalType": "bytes32",
          "name": "role",
          "type": "bytes32"
        },
        {
          "internalType": "address",
          "name": "account",
          "type": "address"
        }
      ],
      "name": "grantRole",
      "outputs": [],
      "stateMutability": "nonpayable",
      "type": "function"
    },
    {
      "inputs": [
        {
          "internalType": "bytes32",
          "name": "role",
          "type": "bytes32"
        },
        {
          "internalType": "address",
          "name": "account",
          "type": "address"
        }
      ],
      "name": "hasRole",
      "outputs": [
        {
          "internalType": "bool",
          "name": "",
          "type": "bool"
        }
      ],
      "stateMutability": "view",
      "type": "function"
    },
    {
      "inputs": [
        {
          "components": [
            {
              "internalType": "address",
              "name": "nftContract",
              "type": "address"
            },
            {
              "internalType": "uint256",
              "name": "tokenId",
              "type": "uint256"
            },
            {
              "internalType": "uint256",
              "name": "price",
              "type": "uint256"
            },
            {
              "internalType": "uint256",
              "name": "saltNonce",
              "type": "uint256"
            },
            {
              "internalType": "uint256",
              "name": "expiry",
              "type": "uint256"
            },
            {
              "internalType": "enum OpenMarkV4.OrderType",
              "name": "option",
              "type": "uint8"
            }
          ],
          "internalType": "struct OpenMarkV4.Order",
          "name": "order",
          "type": "tuple"
        }
      ],
      "name": "hashOrder",
      "outputs": [
        {
          "internalType": "bytes32",
          "name": "",
          "type": "bytes32"
        }
      ],
      "stateMutability": "pure",
      "type": "function"
    },
    {
      "inputs": [
        {
          "internalType": "address payable",
          "name": "buyer",
          "type": "address"
        },
        {
          "components": [
            {
              "internalType": "address",
              "name": "nftContract",
              "type": "address"
            },
            {
              "internalType": "uint256",
              "name": "tokenId",
              "type": "uint256"
            },
            {
              "internalType": "uint256",
              "name": "price",
              "type": "uint256"
            },
            {
              "internalType": "uint256",
              "name": "saltNonce",
              "type": "uint256"
            },
            {
              "internalType": "uint256",
              "name": "expiry",
              "type": "uint256"
            },
            {
              "internalType": "enum OpenMarkV4.OrderType",
              "name": "option",
              "type": "uint8"
            }
          ],
          "internalType": "struct OpenMarkV4.Order",
          "name": "order",
          "type": "tuple"
        },
        {
          "internalType": "bytes",
          "name": "signature",
          "type": "bytes"
        }
      ],
      "name": "offer",
      "outputs": [],
      "stateMutability": "payable",
      "type": "function"
    },
    {
      "inputs": [
        {
          "internalType": "bytes32",
          "name": "role",
          "type": "bytes32"
        },
        {
          "internalType": "address",
          "name": "account",
          "type": "address"
        }
      ],
      "name": "renounceRole",
      "outputs": [],
      "stateMutability": "nonpayable",
      "type": "function"
    },
    {
      "inputs": [
        {
          "internalType": "bytes32",
          "name": "role",
          "type": "bytes32"
        },
        {
          "internalType": "address",
          "name": "account",
          "type": "address"
        }
      ],
      "name": "revokeRole",
      "outputs": [],
      "stateMutability": "nonpayable",
      "type": "function"
    },
    {
      "inputs": [
        {
          "internalType": "uint256",
          "name": "_transactionFee",
          "type": "uint256"
        }
      ],
      "name": "setTransactionFee",
      "outputs": [],
      "stateMutability": "nonpayable",
      "type": "function"
    },
    {
      "inputs": [
        {
          "internalType": "bytes4",
          "name": "interfaceId",
          "type": "bytes4"
        }
      ],
      "name": "supportsInterface",
      "outputs": [
        {
          "internalType": "bool",
          "name": "",
          "type": "bool"
        }
      ],
      "stateMutability": "view",
      "type": "function"
    },
    {
      "inputs": [],
      "name": "transactionFee",
      "outputs": [
        {
          "internalType": "uint256",
          "name": "",
          "type": "uint256"
        }
      ],
      "stateMutability": "view",
      "type": "function"
    },
    {
      "inputs": [
        {
          "internalType": "bytes",
          "name": "",
          "type": "bytes"
        }
      ],
      "name": "usedSignatures",
      "outputs": [
        {
          "internalType": "bool",
          "name": "",
          "type": "bool"
        }
      ],
      "stateMutability": "view",
      "type": "function"
    },
    {
      "inputs": [
        {
          "components": [
            {
              "internalType": "address",
              "name": "nftContract",
              "type": "address"
            },
            {
              "internalType": "uint256",
              "name": "tokenId",
              "type": "uint256"
            },
            {
              "internalType": "uint256",
              "name": "price",
              "type": "uint256"
            },
            {
              "internalType": "uint256",
              "name": "saltNonce",
              "type": "uint256"
            },
            {
              "internalType": "uint256",
              "name": "expiry",
              "type": "uint256"
            },
            {
              "internalType": "enum OpenMarkV4.OrderType",
              "name": "option",
              "type": "uint8"
            }
          ],
          "internalType": "struct OpenMarkV4.Order",
          "name": "order",
          "type": "tuple"
        },
        {
          "internalType": "bytes",
          "name": "signature",
          "type": "bytes"
        }
      ],
      "name": "verify",
      "outputs": [
        {
          "internalType": "address",
          "name": "",
          "type": "address"
        }
      ],
      "stateMutability": "view",
      "type": "function"
    },
    {
      "inputs": [],
      "name": "withdraw",
      "outputs": [],
      "stateMutability": "nonpayable",
      "type": "function"
    },
    {
      "inputs": [
        {
          "internalType": "address",
          "name": "_tokenContract",
          "type": "address"
        },
        {
          "internalType": "uint256",
          "name": "_amount",
          "type": "uint256"
        }
      ],
      "name": "withdrawToken",
      "outputs": [],
      "stateMutability": "nonpayable",
      "type": "function"
    },
    {
      "inputs": [],
      "name": "wrappedEth",
      "outputs": [
        {
          "internalType": "address",
          "name": "",
          "type": "address"
        }
      ],
      "stateMutability": "view",
      "type": "function"
    },
    {
      "stateMutability": "payable",
      "type": "receive"
    }
  ],
  "bytecode": "0x61016060405260326004553480156200001757600080fd5b5060405162002ce638038062002ce68339810160408190526200003a9162000394565b604051806040016040528060088152602001674f70656e4d61726b60c01b815250604051806040016040528060018152602001603160f81b8152506001808190555062000097600283620001aa60201b6200118f1790919060201c565b61012052620000b4816003620001aa602090811b6200118f17901c565b61014052815160208084019190912060e052815190820120610100524660a0526200014260e05161010051604080517f8b73c3c69bb8fe3d512ecc4cf759cc79239f7b179b0ffacaa9a75d522b39400f60208201529081019290925260608201524660808201523060a082015260009060c00160405160208183030381529060405280519060200120905090565b60805250503060c05262000158600033620001fe565b620001847fa49807205ce4d355092ef5a8a18f56e8913cf4a201fbe287825b095693c2177533620001fe565b600580546001600160a01b0319166001600160a01b03929092169190911790556200047d565b6000602083511015620001ca57620001c2836200029f565b9050620001f8565b82620001e183620002eb60201b620011c61760201c565b8151620001f29260200190620002ee565b5060ff90505b92915050565b6000828152602081815260408083206001600160a01b038516845290915290205460ff166200029b576000828152602081815260408083206001600160a01b03851684529091529020805460ff191660011790556200025a3390565b6001600160a01b0316816001600160a01b0316837f2f8788117e7eff1d82e926ec794901d17c78024a50270940304540a733656f0d60405160405180910390a45b5050565b600080829050601f81511115620002d6578260405163305a27a960e01b8152600401620002cd9190620003c6565b60405180910390fd5b8051620002e3826200041e565b179392505050565b90565b828054620002fc9062000446565b90600052602060002090601f0160209004810192826200032057600085556200036b565b82601f106200033b57805160ff19168380011785556200036b565b828001600101855582156200036b579182015b828111156200036b5782518255916020019190600101906200034e565b50620003799291506200037d565b5090565b5b808211156200037957600081556001016200037e565b600060208284031215620003a757600080fd5b81516001600160a01b0381168114620003bf57600080fd5b9392505050565b600060208083528351808285015260005b81811015620003f557858101830151858201604001528201620003d7565b8181111562000408576000604083870101525b50601f01601f1916929092016040019392505050565b8051602080830151919081101562000440576000198160200360031b1b821691505b50919050565b600181811c908216806200045b57607f821691505b602082108114156200044057634e487b7160e01b600052602260045260246000fd5b60805160a05160c05160e05161010051610120516101405161280e620004d86000396000610c1601526000610beb0152600061190a015260006118e20152600061183d0152600061186701526000611891015261280e6000f3fe60806040526004361061014f5760003560e01c806375b238fc116100b6578063a217fddf1161006f578063a217fddf146103ac578063bc063e1a146103c1578063d547741f146103d7578063e236a6ce146103f7578063e949580e14610417578063f973a2091461045257600080fd5b806375b238fc146102f957806384b0196e1461031b57806387b4404d1461034357806391d14854146103565780639e281a98146103765780639ed3edf01461039657600080fd5b806336568abe1161010857806336568abe146102395780633ccfd60b14610259578063429b73791461026e57806351452fdb1461028e5780635bbbed88146102c657806368ca883a146102d957600080fd5b806301ffc9a71461015b578063096a8ab7146101905780631317190f146101b2578063248a9ca3146101c55780632f2ff15d146102035780633644e5151461022357600080fd5b3661015657005b600080fd5b34801561016757600080fd5b5061017b610176366004611e66565b610486565b60405190151581526020015b60405180910390f35b34801561019c57600080fd5b506101b06101ab366004611e90565b6104bd565b005b6101b06101c036600461202f565b61053d565b3480156101d157600080fd5b506101f56101e0366004611e90565b60009081526020819052604090206001015490565b604051908152602001610187565b34801561020f57600080fd5b506101b061021e36600461214c565b6105c1565b34801561022f57600080fd5b506101f560065481565b34801561024557600080fd5b506101b061025436600461214c565b6105eb565b34801561026557600080fd5b506101b0610665565b34801561027a57600080fd5b506101f561028936600461217c565b6106a9565b34801561029a57600080fd5b506102ae6102a9366004612198565b61071d565b6040516001600160a01b039091168152602001610187565b6101b06102d43660046121e7565b6107e5565b3480156102e557600080fd5b506005546102ae906001600160a01b031681565b34801561030557600080fd5b506101f56000805160206127b983398151915281565b34801561032757600080fd5b50610330610bdd565b60405161018797969594939291906122a5565b6101b06103513660046121e7565b610c66565b34801561036257600080fd5b5061017b61037136600461214c565b610fb9565b34801561038257600080fd5b506101b061039136600461233b565b610fe2565b3480156103a257600080fd5b506101f560045481565b3480156103b857600080fd5b506101f5600081565b3480156103cd57600080fd5b506101f56101f481565b3480156103e357600080fd5b506101b06103f236600461214c565b611083565b34801561040357600080fd5b5061017b610412366004612198565b6110a8565b34801561042357600080fd5b5061017b610432366004612367565b805160208183018101805160078252928201919093012091525460ff1681565b34801561045e57600080fd5b506101f57f8bc157fc0bfde343ae15358953e71472b724dd0074471eddbe3ea4a83af6768081565b60006001600160e01b03198216637965db0b60e01b14806104b757506301ffc9a760e01b6001600160e01b03198316145b92915050565b6000805160206127b98339815191526104d5816111c9565b6101f48211156105375760405162461bcd60e51b815260206004820152602260248201527f4f50454e4d41524b3a205472616e73616374696f6e2066656520696e76616c69604482015261321760f11b60648201526084015b60405180910390fd5b50600455565b60005b81518110156105bd576105ab82828151811061055e5761055e61239c565b60200260200101516000015183838151811061057c5761057c61239c565b60200260200101516020015184848151811061059a5761059a61239c565b602002602001015160400151610c66565b806105b5816123c8565b915050610540565b5050565b6000828152602081905260409020600101546105dc816111c9565b6105e683836111d6565b505050565b6001600160a01b038116331461065b5760405162461bcd60e51b815260206004820152602f60248201527f416363657373436f6e74726f6c3a2063616e206f6e6c792072656e6f756e636560448201526e103937b632b9903337b91039b2b63360891b606482015260840161052e565b6105bd828261125a565b6000805160206127b983398151915261067d816111c9565b60405133904780156108fc02916000818181858888f193505050501580156105bd573d6000803e3d6000fd5b60007f8bc157fc0bfde343ae15358953e71472b724dd0074471eddbe3ea4a83af67680826000015183602001518460400151856060015186608001518760a00151604051602001610700979695949392919061241b565b604051602081830303815290604052805190602001209050919050565b6000806107d17f8bc157fc0bfde343ae15358953e71472b724dd0074471eddbe3ea4a83af676808560000151604051602001610771919060609190911b6bffffffffffffffffffffffff1916815260140190565b6040516020818303038152906040528051906020012086602001518760400151886060015189608001518a60a001516040516020016107b69796959493929190612466565b604051602081830303815290604052805190602001206112bf565b90506107dd81846112ec565b949350505050565b6107ed611310565b6007816040516107fd919061249c565b9081526040519081900360200190205460ff161561082d5760405162461bcd60e51b815260040161052e906124b8565b600082604001511161087c5760405162461bcd60e51b815260206004820152601860248201527727a822a726a0a9259d1024b73b30b634b210383934b1b29760411b604482015260640161052e565b4282608001511161089f5760405162461bcd60e51b815260040161052e906124f9565b60018260a0015160018111156108b7576108b76123e3565b146109235760405162461bcd60e51b815260206004820152603660248201527f4f50454e4d41524b3a204f726465722074797065206d757374206265204f666660448201527532b9103337b91037b33332b910333ab731ba34b7b71760511b606482015260840161052e565b600061092e836106a9565b9050600061093b8261136a565b9050846001600160a01b031661095182856112ec565b6001600160a01b0316146109b25760405162461bcd60e51b815260206004820152602260248201527f4f50454e4d41524b3a20496e76616c6964206275796572207369676e61747572604482015261329760f11b606482015260840161052e565b835160208501516040516331a9108f60e11b8152600481019190915233916001600160a01b031690636352211e9060240160206040518083038186803b1580156109fb57600080fd5b505afa158015610a0f573d6000803e3d6000fd5b505050506040513d601f19601f82011682018060405250810190610a33919061253f565b6001600160a01b031614610a895760405162461bcd60e51b815260206004820152601e60248201527f4f50454e4d41524b3a2053656c6c6572206973206e6f74206f776e65722e0000604482015260640161052e565b6000610ab06103e8610aaa876040015160045461139d90919063ffffffff16565b906113b0565b90506000610acb8287604001516113bc90919063ffffffff16565b600554909150610ae6906001600160a01b03168833846113c8565b600554610afe906001600160a01b03168830856113c8565b8551610b1090338989602001516114f8565b6001600786604051610b22919061249c565b908152604051908190036020018120805492151560ff1990931692909217909155600190600790610b5490889061249c565b908152602001604051809103902060006101000a81548160ff0219169083151502179055507fe23d2e48aa0800ddf7b0b33b6baac6233152dc419117c207ec75d9a9f2cad87a8660a00151876000015188602001518960400151338c8c60800151604051610bc8979695949392919061255c565b60405180910390a1505050506105e660018055565b600060608082808083610c117f0000000000000000000000000000000000000000000000000000000000000000600261162c565b610c3c7f0000000000000000000000000000000000000000000000000000000000000000600361162c565b60408051600080825260208201909252600f60f81b9b939a50919850469750309650945092509050565b610c6e611310565b600781604051610c7e919061249c565b9081526040519081900360200190205460ff1615610cae5760405162461bcd60e51b815260040161052e906124b8565b6000826040015111610cfd5760405162461bcd60e51b815260206004820152601860248201527727a822a726a0a9259d1024b73b30b634b210383934b1b29760411b604482015260640161052e565b42826080015111610d205760405162461bcd60e51b815260040161052e906124f9565b60008260a001516001811115610d3857610d386123e3565b14610da05760405162461bcd60e51b815260206004820152603260248201527f4f50454e4d41524b3a204f726465722074797065206d75737420626520427579604482015271103337b910313abc90333ab731ba34b7b71760711b606482015260840161052e565b6000610dab836106a9565b90506000610db88261136a565b9050846001600160a01b0316610dce82856112ec565b6001600160a01b031614610df45760405162461bcd60e51b815260040161052e906125a6565b835160208501516040516331a9108f60e11b815260048101919091526001600160a01b03878116921690636352211e9060240160206040518083038186803b158015610e3f57600080fd5b505afa158015610e53573d6000803e3d6000fd5b505050506040513d601f19601f82011682018060405250810190610e77919061253f565b6001600160a01b031614610ecd5760405162461bcd60e51b815260206004820152601e60248201527f4f50454e4d41524b3a2053656c6c6572206973206e6f74206f776e65722e0000604482015260640161052e565b6000610eee6103e8610aaa876040015160045461139d90919063ffffffff16565b90506000610f098287604001516113bc90919063ffffffff16565b9050610f1587826116d0565b610f1f30836116d0565b610f338660000151883389602001516114f8565b6001600786604051610f45919061249c565b908152602001604051809103902060006101000a81548160ff0219169083151502179055507fe23d2e48aa0800ddf7b0b33b6baac6233152dc419117c207ec75d9a9f2cad87a8660a001518760000151886020015189604001518b338c60800151604051610bc8979695949392919061255c565b6000918252602082815260408084206001600160a01b0393909316845291905290205460ff1690565b6000805160206127b9833981519152610ffa816111c9565b60405163a9059cbb60e01b81523360048201526024810183905283906001600160a01b0382169063a9059cbb90604401602060405180830381600087803b15801561104457600080fd5b505af1158015611058573d6000803e3d6000fd5b505050506040513d601f19601f8201168201806040525081019061107c91906125e9565b5050505050565b60008281526020819052604090206001015461109e816111c9565b6105e6838361125a565b6000806110b4846106a9565b905060006110c18261136a565b9050336110ce82866112ec565b6001600160a01b0316146110f45760405162461bcd60e51b815260040161052e906125a6565b6001600785604051611106919061249c565b908152602001604051809103902060006101000a81548160ff0219169083151502179055507fe05ef08d4da6635dc232d8d5fb6d2d25f4bd7fc2d86e77fa3fa6bc67b223ff6b8560a0015186600001518760200151886040015189606001518a6080015160405161117c9695949392919061260b565b60405180910390a1506001949350505050565b60006020835110156111ab576111a483611799565b90506104b7565b828281516111bc9260200190611dcd565b5060ff90506104b7565b90565b6111d381336117d7565b50565b6111e08282610fb9565b6105bd576000828152602081815260408083206001600160a01b03851684529091529020805460ff191660011790556112163390565b6001600160a01b0316816001600160a01b0316837f2f8788117e7eff1d82e926ec794901d17c78024a50270940304540a733656f0d60405160405180910390a45050565b6112648282610fb9565b156105bd576000828152602081815260408083206001600160a01b0385168085529252808320805460ff1916905551339285917ff6391f5c32d9c69d2a47ea670b442974b53935d1edc7fd64eb21e047a839171b9190a45050565b60006104b76112cc611830565b8360405161190160f01b8152600281019290925260228201526042902090565b60008060006112fb8585611960565b91509150611308816119a6565b509392505050565b600260015414156113635760405162461bcd60e51b815260206004820152601f60248201527f5265656e7472616e637947756172643a207265656e7472616e742063616c6c00604482015260640161052e565b6002600155565b7f19457468657265756d205369676e6564204d6573736167653a0a3332000000006000908152601c91909152603c902090565b60006113a9828461264a565b9392505050565b60006113a98284612669565b60006113a9828461268b565b604080516001600160a01b0385811660248301528481166044830152606480830185905283518084039091018152608490920183526020820180516001600160e01b03166323b872dd60e01b179052915160009283929088169161142c919061249c565b6000604051808303816000865af19150503d8060008114611469576040519150601f19603f3d011682016040523d82523d6000602084013e61146e565b606091505b509150915081801561149857508051158061149857508080602001905181019061149891906125e9565b6114f05760405162461bcd60e51b8152602060048201526024808201527f5472616e7366657248656c7065723a205452414e534645525f46524f4d5f46416044820152631253115160e21b606482015260840161052e565b505050505050565b604080516001600160a01b0385811660248301528481166044830152606480830185905283518084039091018152608490920183526020820180516001600160e01b0316632142170760e11b179052915160009283929088169161155c919061249c565b6000604051808303816000865af19150503d8060008114611599576040519150601f19603f3d011682016040523d82523d6000602084013e61159e565b606091505b50915091508180156115c85750805115806115c85750808060200190518101906115c891906125e9565b6114f05760405162461bcd60e51b815260206004820152602f60248201527f5472616e7366657248656c7065723a205452414e534645525f46524f4d5f4e4660448201526e1517d15490cdcc8c57d19052531151608a1b606482015260840161052e565b606060ff831461163f576111a483611af4565b81805461164b906126a2565b80601f0160208091040260200160405190810160405280929190818152602001828054611677906126a2565b80156116c45780601f10611699576101008083540402835291602001916116c4565b820191906000526020600020905b8154815290600101906020018083116116a757829003601f168201915b505050505090506104b7565b604080516000808252602082019092526001600160a01b0384169083906040516116fa919061249c565b60006040518083038185875af1925050503d8060008114611737576040519150601f19603f3d011682016040523d82523d6000602084013e61173c565b606091505b50509050806105e65760405162461bcd60e51b815260206004820152602360248201527f5472616e7366657248656c7065723a204554485f5452414e534645525f46414960448201526213115160ea1b606482015260840161052e565b600080829050601f815111156117c4578260405163305a27a960e01b815260040161052e91906126dd565b80516117cf826126f0565b179392505050565b6117e18282610fb9565b6105bd576117ee81611b33565b6117f9836020611b45565b60405160200161180a929190612714565b60408051601f198184030181529082905262461bcd60e51b825261052e916004016126dd565b6000306001600160a01b037f00000000000000000000000000000000000000000000000000000000000000001614801561188957507f000000000000000000000000000000000000000000000000000000000000000046145b156118b357507f000000000000000000000000000000000000000000000000000000000000000090565b61195b604080517f8b73c3c69bb8fe3d512ecc4cf759cc79239f7b179b0ffacaa9a75d522b39400f60208201527f0000000000000000000000000000000000000000000000000000000000000000918101919091527f000000000000000000000000000000000000000000000000000000000000000060608201524660808201523060a082015260009060c00160405160208183030381529060405280519060200120905090565b905090565b6000808251604114156119975760208301516040840151606085015160001a61198b87828585611ce1565b9450945050505061199f565b506000905060025b9250929050565b60008160048111156119ba576119ba6123e3565b14156119c35750565b60018160048111156119d7576119d76123e3565b1415611a255760405162461bcd60e51b815260206004820152601860248201527f45434453413a20696e76616c6964207369676e61747572650000000000000000604482015260640161052e565b6002816004811115611a3957611a396123e3565b1415611a875760405162461bcd60e51b815260206004820152601f60248201527f45434453413a20696e76616c6964207369676e6174757265206c656e67746800604482015260640161052e565b6003816004811115611a9b57611a9b6123e3565b14156111d35760405162461bcd60e51b815260206004820152602260248201527f45434453413a20696e76616c6964207369676e6174757265202773272076616c604482015261756560f01b606482015260840161052e565b60606000611b0183611da5565b604080516020808252818301909252919250600091906020820181803683375050509182525060208101929092525090565b60606104b76001600160a01b03831660145b60606000611b5483600261264a565b611b5f906002612789565b67ffffffffffffffff811115611b7757611b77611ea9565b6040519080825280601f01601f191660200182016040528015611ba1576020820181803683370190505b509050600360fc1b81600081518110611bbc57611bbc61239c565b60200101906001600160f81b031916908160001a905350600f60fb1b81600181518110611beb57611beb61239c565b60200101906001600160f81b031916908160001a9053506000611c0f84600261264a565b611c1a906001612789565b90505b6001811115611c92576f181899199a1a9b1b9c1cb0b131b232b360811b85600f1660108110611c4e57611c4e61239c565b1a60f81b828281518110611c6457611c6461239c565b60200101906001600160f81b031916908160001a90535060049490941c93611c8b816127a1565b9050611c1d565b5083156113a95760405162461bcd60e51b815260206004820181905260248201527f537472696e67733a20686578206c656e67746820696e73756666696369656e74604482015260640161052e565b6000807f7fffffffffffffffffffffffffffffff5d576e7357a4501ddfe92f46681b20a0831115611d185750600090506003611d9c565b6040805160008082526020820180845289905260ff881692820192909252606081018690526080810185905260019060a0016020604051602081039080840390855afa158015611d6c573d6000803e3d6000fd5b5050604051601f1901519150506001600160a01b038116611d9557600060019250925050611d9c565b9150600090505b94509492505050565b600060ff8216601f8111156104b757604051632cd44ac360e21b815260040160405180910390fd5b828054611dd9906126a2565b90600052602060002090601f016020900481019282611dfb5760008555611e41565b82601f10611e1457805160ff1916838001178555611e41565b82800160010185558215611e41579182015b82811115611e41578251825591602001919060010190611e26565b50611e4d929150611e51565b5090565b5b80821115611e4d5760008155600101611e52565b600060208284031215611e7857600080fd5b81356001600160e01b0319811681146113a957600080fd5b600060208284031215611ea257600080fd5b5035919050565b634e487b7160e01b600052604160045260246000fd5b6040516060810167ffffffffffffffff81118282101715611ee257611ee2611ea9565b60405290565b604051601f8201601f1916810167ffffffffffffffff81118282101715611f1157611f11611ea9565b604052919050565b6001600160a01b03811681146111d357600080fd5b600060c08284031215611f4057600080fd5b60405160c0810181811067ffffffffffffffff82111715611f6357611f63611ea9565b6040529050808235611f7481611f19565b808252506020830135602082015260408301356040820152606083013560608201526080830135608082015260a083013560028110611fb257600080fd5b60a0919091015292915050565b600082601f830112611fd057600080fd5b813567ffffffffffffffff811115611fea57611fea611ea9565b611ffd601f8201601f1916602001611ee8565b81815284602083860101111561201257600080fd5b816020850160208301376000918101602001919091529392505050565b6000602080838503121561204257600080fd5b823567ffffffffffffffff8082111561205a57600080fd5b818501915085601f83011261206e57600080fd5b81358181111561208057612080611ea9565b8060051b61208f858201611ee8565b91825283810185019185810190898411156120a957600080fd5b86860192505b8383101561213f578235858111156120c75760008081fd5b8601610100818c03601f19018113156120e05760008081fd5b6120e8611ebf565b898301356120f581611f19565b815260406121058e858301611f2e565b828c015291830135918883111561211c5760008081fd5b61212a8e8c85870101611fbf565b908201528452505091860191908601906120af565b9998505050505050505050565b6000806040838503121561215f57600080fd5b82359150602083013561217181611f19565b809150509250929050565b600060c0828403121561218e57600080fd5b6113a98383611f2e565b60008060e083850312156121ab57600080fd5b6121b58484611f2e565b915060c083013567ffffffffffffffff8111156121d157600080fd5b6121dd85828601611fbf565b9150509250929050565b600080600061010084860312156121fd57600080fd5b833561220881611f19565b92506122178560208601611f2e565b915060e084013567ffffffffffffffff81111561223357600080fd5b61223f86828701611fbf565b9150509250925092565b60005b8381101561226457818101518382015260200161224c565b83811115612273576000848401525b50505050565b60008151808452612291816020860160208601612249565b601f01601f19169290920160200192915050565b60ff60f81b881681526000602060e0818401526122c560e084018a612279565b83810360408501526122d7818a612279565b606085018990526001600160a01b038816608086015260a0850187905284810360c0860152855180825283870192509083019060005b818110156123295783518352928401929184019160010161230d565b50909c9b505050505050505050505050565b6000806040838503121561234e57600080fd5b823561235981611f19565b946020939093013593505050565b60006020828403121561237957600080fd5b813567ffffffffffffffff81111561239057600080fd5b6107dd84828501611fbf565b634e487b7160e01b600052603260045260246000fd5b634e487b7160e01b600052601160045260246000fd5b60006000198214156123dc576123dc6123b2565b5060010190565b634e487b7160e01b600052602160045260246000fd5b6002811061241757634e487b7160e01b600052602160045260246000fd5b9052565b8781526001600160a01b038716602082015260408101869052606081018590526080810184905260a0810183905260e0810161245a60c08301846123f9565b98975050505050505050565b600060e0820190508882528760208301528660408301528560608301528460808301528360a083015261245a60c08301846123f9565b600082516124ae818460208701612249565b9190910192915050565b60208082526021908201527f4f50454e4d41524b3a205369676e617475726520616c726561647920757365646040820152601760f91b606082015260800190565b60208082526026908201527f4f50454e4d41524b3a2045787069726564206c697374696e67206f7220736f6c604082015265321037baba1760d11b606082015260800190565b60006020828403121561255157600080fd5b81516113a981611f19565b60e0810161256a828a6123f9565b6001600160a01b03978816602083015260408201969096526060810194909452918516608084015290931660a082015260c00191909152919050565b60208082526023908201527f4f50454e4d41524b3a20496e76616c69642073656c6c6572207369676e61747560408201526239329760e91b606082015260800190565b6000602082840312156125fb57600080fd5b815180151581146113a957600080fd5b60c0810161261982896123f9565b6001600160a01b0396909616602082015260408101949094526060840192909252608083015260a090910152919050565b6000816000190483118215151615612664576126646123b2565b500290565b60008261268657634e487b7160e01b600052601260045260246000fd5b500490565b60008282101561269d5761269d6123b2565b500390565b600181811c908216806126b657607f821691505b602082108114156126d757634e487b7160e01b600052602260045260246000fd5b50919050565b6020815260006113a96020830184612279565b805160208083015191908110156126d75760001960209190910360031b1b16919050565b7f416363657373436f6e74726f6c3a206163636f756e742000000000000000000081526000835161274c816017850160208801612249565b7001034b99036b4b9b9b4b733903937b6329607d1b601791840191820152835161277d816028840160208801612249565b01602801949350505050565b6000821982111561279c5761279c6123b2565b500190565b6000816127b0576127b06123b2565b50600019019056fea49807205ce4d355092ef5a8a18f56e8913cf4a201fbe287825b095693c21775a2646970667358221220ad815441ad7f7710f7f70fc1772c38395f5b8bcf1b13aa6e8f07e4bf9d73988064736f6c63430008090033",
  "linkReferences": {},
  "deployedLinkReferences": {}
}