{
  "_format": "hh-sol-artifact-1",
  "contractName": "OpenMarkV4",
  "sourceName": "contracts/market/OpenMarkV4.sol",
  "abi": [
    {
      "inputs": [
        {
          "internalType": "address",
          "name": "_wrappedEth",
          "type": "address"
        }
      ],
      "stateMutability": "nonpayable",
      "type": "constructor"
    },
    {
      "inputs": [],
      "name": "InvalidShortString",
      "type": "error"
    },
    {
      "inputs": [
        {
          "internalType": "string",
          "name": "str",
          "type": "string"
        }
      ],
      "name": "StringTooLong",
      "type": "error"
    },
    {
      "anonymous": false,
      "inputs": [
        {
          "indexed": false,
          "internalType": "enum OpenMarkV4.OrderType",
          "name": "option",
          "type": "uint8"
        },
        {
          "indexed": false,
          "internalType": "address",
          "name": "nftContract",
          "type": "address"
        },
        {
          "indexed": false,
          "internalType": "uint256",
          "name": "tokenId",
          "type": "uint256"
        },
        {
          "indexed": false,
          "internalType": "uint256",
          "name": "price",
          "type": "uint256"
        },
        {
          "indexed": false,
          "internalType": "uint256",
          "name": "saltNonce",
          "type": "uint256"
        },
        {
          "indexed": false,
          "internalType": "uint256",
          "name": "expiry",
          "type": "uint256"
        }
      ],
      "name": "Cancel",
      "type": "event"
    },
    {
      "anonymous": false,
      "inputs": [],
      "name": "EIP712DomainChanged",
      "type": "event"
    },
    {
      "anonymous": false,
      "inputs": [
        {
          "indexed": true,
          "internalType": "bytes32",
          "name": "role",
          "type": "bytes32"
        },
        {
          "indexed": true,
          "internalType": "bytes32",
          "name": "previousAdminRole",
          "type": "bytes32"
        },
        {
          "indexed": true,
          "internalType": "bytes32",
          "name": "newAdminRole",
          "type": "bytes32"
        }
      ],
      "name": "RoleAdminChanged",
      "type": "event"
    },
    {
      "anonymous": false,
      "inputs": [
        {
          "indexed": true,
          "internalType": "bytes32",
          "name": "role",
          "type": "bytes32"
        },
        {
          "indexed": true,
          "internalType": "address",
          "name": "account",
          "type": "address"
        },
        {
          "indexed": true,
          "internalType": "address",
          "name": "sender",
          "type": "address"
        }
      ],
      "name": "RoleGranted",
      "type": "event"
    },
    {
      "anonymous": false,
      "inputs": [
        {
          "indexed": true,
          "internalType": "bytes32",
          "name": "role",
          "type": "bytes32"
        },
        {
          "indexed": true,
          "internalType": "address",
          "name": "account",
          "type": "address"
        },
        {
          "indexed": true,
          "internalType": "address",
          "name": "sender",
          "type": "address"
        }
      ],
      "name": "RoleRevoked",
      "type": "event"
    },
    {
      "anonymous": false,
      "inputs": [
        {
          "indexed": false,
          "internalType": "enum OpenMarkV4.OrderType",
          "name": "option",
          "type": "uint8"
        },
        {
          "indexed": false,
          "internalType": "address",
          "name": "nftContract",
          "type": "address"
        },
        {
          "indexed": false,
          "internalType": "uint256",
          "name": "tokenId",
          "type": "uint256"
        },
        {
          "indexed": false,
          "internalType": "uint256",
          "name": "price",
          "type": "uint256"
        },
        {
          "indexed": false,
          "internalType": "address",
          "name": "seller",
          "type": "address"
        },
        {
          "indexed": false,
          "internalType": "address",
          "name": "buyer",
          "type": "address"
        },
        {
          "indexed": false,
          "internalType": "uint256",
          "name": "expiry",
          "type": "uint256"
        }
      ],
      "name": "Trade",
      "type": "event"
    },
    {
      "anonymous": false,
      "inputs": [
        {
          "indexed": false,
          "internalType": "uint256",
          "name": "amount",
          "type": "uint256"
        },
        {
          "indexed": false,
          "internalType": "uint256",
          "name": "timeStamp",
          "type": "uint256"
        }
      ],
      "name": "Withdraw",
      "type": "event"
    },
    {
      "inputs": [],
      "name": "ADMIN_ROLE",
      "outputs": [
        {
          "internalType": "bytes32",
          "name": "",
          "type": "bytes32"
        }
      ],
      "stateMutability": "view",
      "type": "function"
    },
    {
      "inputs": [],
      "name": "DEFAULT_ADMIN_ROLE",
      "outputs": [
        {
          "internalType": "bytes32",
          "name": "",
          "type": "bytes32"
        }
      ],
      "stateMutability": "view",
      "type": "function"
    },
    {
      "inputs": [],
      "name": "MAX_FEE",
      "outputs": [
        {
          "internalType": "uint256",
          "name": "",
          "type": "uint256"
        }
      ],
      "stateMutability": "view",
      "type": "function"
    },
    {
      "inputs": [],
      "name": "ORDER_TYPEHASH",
      "outputs": [
        {
          "internalType": "bytes32",
          "name": "",
          "type": "bytes32"
        }
      ],
      "stateMutability": "view",
      "type": "function"
    },
    {
      "inputs": [
        {
          "components": [
            {
              "internalType": "address payable",
              "name": "seller",
              "type": "address"
            },
            {
              "components": [
                {
                  "internalType": "address",
                  "name": "nftContract",
                  "type": "address"
                },
                {
                  "internalType": "uint256",
                  "name": "tokenId",
                  "type": "uint256"
                },
                {
                  "internalType": "uint256",
                  "name": "price",
                  "type": "uint256"
                },
                {
                  "internalType": "uint256",
                  "name": "saltNonce",
                  "type": "uint256"
                },
                {
                  "internalType": "uint256",
                  "name": "expiry",
                  "type": "uint256"
                },
                {
                  "internalType": "enum OpenMarkV4.OrderType",
                  "name": "option",
                  "type": "uint8"
                }
              ],
              "internalType": "struct OpenMarkV4.Order",
              "name": "order",
              "type": "tuple"
            },
            {
              "internalType": "bytes",
              "name": "signature",
              "type": "bytes"
            }
          ],
          "internalType": "struct OpenMarkV4.Bag[]",
          "name": "bag",
          "type": "tuple[]"
        }
      ],
      "name": "batchBuy",
      "outputs": [],
      "stateMutability": "payable",
      "type": "function"
    },
    {
      "inputs": [
        {
          "internalType": "address payable",
          "name": "seller",
          "type": "address"
        },
        {
          "components": [
            {
              "internalType": "address",
              "name": "nftContract",
              "type": "address"
            },
            {
              "internalType": "uint256",
              "name": "tokenId",
              "type": "uint256"
            },
            {
              "internalType": "uint256",
              "name": "price",
              "type": "uint256"
            },
            {
              "internalType": "uint256",
              "name": "saltNonce",
              "type": "uint256"
            },
            {
              "internalType": "uint256",
              "name": "expiry",
              "type": "uint256"
            },
            {
              "internalType": "enum OpenMarkV4.OrderType",
              "name": "option",
              "type": "uint8"
            }
          ],
          "internalType": "struct OpenMarkV4.Order",
          "name": "order",
          "type": "tuple"
        },
        {
          "internalType": "bytes",
          "name": "signature",
          "type": "bytes"
        }
      ],
      "name": "buy",
      "outputs": [],
      "stateMutability": "payable",
      "type": "function"
    },
    {
      "inputs": [
        {
          "components": [
            {
              "internalType": "address",
              "name": "nftContract",
              "type": "address"
            },
            {
              "internalType": "uint256",
              "name": "tokenId",
              "type": "uint256"
            },
            {
              "internalType": "uint256",
              "name": "price",
              "type": "uint256"
            },
            {
              "internalType": "uint256",
              "name": "saltNonce",
              "type": "uint256"
            },
            {
              "internalType": "uint256",
              "name": "expiry",
              "type": "uint256"
            },
            {
              "internalType": "enum OpenMarkV4.OrderType",
              "name": "option",
              "type": "uint8"
            }
          ],
          "internalType": "struct OpenMarkV4.Order",
          "name": "order",
          "type": "tuple"
        },
        {
          "internalType": "bytes",
          "name": "signature",
          "type": "bytes"
        }
      ],
      "name": "cancelOrder",
      "outputs": [
        {
          "internalType": "bool",
          "name": "",
          "type": "bool"
        }
      ],
      "stateMutability": "nonpayable",
      "type": "function"
    },
    {
      "inputs": [],
      "name": "eip712Domain",
      "outputs": [
        {
          "internalType": "bytes1",
          "name": "fields",
          "type": "bytes1"
        },
        {
          "internalType": "string",
          "name": "name",
          "type": "string"
        },
        {
          "internalType": "string",
          "name": "version",
          "type": "string"
        },
        {
          "internalType": "uint256",
          "name": "chainId",
          "type": "uint256"
        },
        {
          "internalType": "address",
          "name": "verifyingContract",
          "type": "address"
        },
        {
          "internalType": "bytes32",
          "name": "salt",
          "type": "bytes32"
        },
        {
          "internalType": "uint256[]",
          "name": "extensions",
          "type": "uint256[]"
        }
      ],
      "stateMutability": "view",
      "type": "function"
    },
    {
      "inputs": [],
      "name": "getChainId",
      "outputs": [
        {
          "internalType": "uint256",
          "name": "",
          "type": "uint256"
        }
      ],
      "stateMutability": "view",
      "type": "function"
    },
    {
      "inputs": [
        {
          "internalType": "bytes32",
          "name": "role",
          "type": "bytes32"
        }
      ],
      "name": "getRoleAdmin",
      "outputs": [
        {
          "internalType": "bytes32",
          "name": "",
          "type": "bytes32"
        }
      ],
      "stateMutability": "view",
      "type": "function"
    },
    {
      "inputs": [
        {
          "internalType": "bytes32",
          "name": "role",
          "type": "bytes32"
        },
        {
          "internalType": "address",
          "name": "account",
          "type": "address"
        }
      ],
      "name": "grantRole",
      "outputs": [],
      "stateMutability": "nonpayable",
      "type": "function"
    },
    {
      "inputs": [
        {
          "internalType": "bytes32",
          "name": "role",
          "type": "bytes32"
        },
        {
          "internalType": "address",
          "name": "account",
          "type": "address"
        }
      ],
      "name": "hasRole",
      "outputs": [
        {
          "internalType": "bool",
          "name": "",
          "type": "bool"
        }
      ],
      "stateMutability": "view",
      "type": "function"
    },
    {
      "inputs": [
        {
          "internalType": "address payable",
          "name": "buyer",
          "type": "address"
        },
        {
          "components": [
            {
              "internalType": "address",
              "name": "nftContract",
              "type": "address"
            },
            {
              "internalType": "uint256",
              "name": "tokenId",
              "type": "uint256"
            },
            {
              "internalType": "uint256",
              "name": "price",
              "type": "uint256"
            },
            {
              "internalType": "uint256",
              "name": "saltNonce",
              "type": "uint256"
            },
            {
              "internalType": "uint256",
              "name": "expiry",
              "type": "uint256"
            },
            {
              "internalType": "enum OpenMarkV4.OrderType",
              "name": "option",
              "type": "uint8"
            }
          ],
          "internalType": "struct OpenMarkV4.Order",
          "name": "order",
          "type": "tuple"
        },
        {
          "internalType": "bytes",
          "name": "signature",
          "type": "bytes"
        }
      ],
      "name": "offer",
      "outputs": [],
      "stateMutability": "payable",
      "type": "function"
    },
    {
      "inputs": [
        {
          "internalType": "bytes32",
          "name": "role",
          "type": "bytes32"
        },
        {
          "internalType": "address",
          "name": "account",
          "type": "address"
        }
      ],
      "name": "renounceRole",
      "outputs": [],
      "stateMutability": "nonpayable",
      "type": "function"
    },
    {
      "inputs": [
        {
          "internalType": "bytes32",
          "name": "role",
          "type": "bytes32"
        },
        {
          "internalType": "address",
          "name": "account",
          "type": "address"
        }
      ],
      "name": "revokeRole",
      "outputs": [],
      "stateMutability": "nonpayable",
      "type": "function"
    },
    {
      "inputs": [
        {
          "internalType": "uint256",
          "name": "_transactionFee",
          "type": "uint256"
        }
      ],
      "name": "setTransactionFee",
      "outputs": [],
      "stateMutability": "nonpayable",
      "type": "function"
    },
    {
      "inputs": [
        {
          "internalType": "bytes4",
          "name": "interfaceId",
          "type": "bytes4"
        }
      ],
      "name": "supportsInterface",
      "outputs": [
        {
          "internalType": "bool",
          "name": "",
          "type": "bool"
        }
      ],
      "stateMutability": "view",
      "type": "function"
    },
    {
      "inputs": [],
      "name": "transactionFee",
      "outputs": [
        {
          "internalType": "uint256",
          "name": "",
          "type": "uint256"
        }
      ],
      "stateMutability": "view",
      "type": "function"
    },
    {
      "inputs": [
        {
          "internalType": "bytes",
          "name": "",
          "type": "bytes"
        }
      ],
      "name": "usedSignatures",
      "outputs": [
        {
          "internalType": "bool",
          "name": "",
          "type": "bool"
        }
      ],
      "stateMutability": "view",
      "type": "function"
    },
    {
      "inputs": [
        {
          "components": [
            {
              "internalType": "address",
              "name": "nftContract",
              "type": "address"
            },
            {
              "internalType": "uint256",
              "name": "tokenId",
              "type": "uint256"
            },
            {
              "internalType": "uint256",
              "name": "price",
              "type": "uint256"
            },
            {
              "internalType": "uint256",
              "name": "saltNonce",
              "type": "uint256"
            },
            {
              "internalType": "uint256",
              "name": "expiry",
              "type": "uint256"
            },
            {
              "internalType": "enum OpenMarkV4.OrderType",
              "name": "option",
              "type": "uint8"
            }
          ],
          "internalType": "struct OpenMarkV4.Order",
          "name": "order",
          "type": "tuple"
        },
        {
          "internalType": "bytes",
          "name": "signature",
          "type": "bytes"
        }
      ],
      "name": "verify",
      "outputs": [
        {
          "internalType": "address",
          "name": "",
          "type": "address"
        }
      ],
      "stateMutability": "view",
      "type": "function"
    },
    {
      "inputs": [],
      "name": "withdraw",
      "outputs": [],
      "stateMutability": "nonpayable",
      "type": "function"
    },
    {
      "inputs": [
        {
          "internalType": "address",
          "name": "_tokenContract",
          "type": "address"
        },
        {
          "internalType": "uint256",
          "name": "_amount",
          "type": "uint256"
        }
      ],
      "name": "withdrawToken",
      "outputs": [],
      "stateMutability": "nonpayable",
      "type": "function"
    },
    {
      "inputs": [],
      "name": "wrappedEth",
      "outputs": [
        {
          "internalType": "address",
          "name": "",
          "type": "address"
        }
      ],
      "stateMutability": "view",
      "type": "function"
    },
    {
      "stateMutability": "payable",
      "type": "receive"
    }
  ],
  "bytecode": "0x61016060405260326004553480156200001757600080fd5b5060405162002b5938038062002b598339810160408190526200003a9162000394565b604051806040016040528060088152602001674f70656e4d61726b60c01b815250604051806040016040528060018152602001603160f81b8152506001808190555062000097600283620001aa60201b620010ca1790919060201c565b61012052620000b4816003620001aa602090811b620010ca17901c565b61014052815160208084019190912060e052815190820120610100524660a0526200014260e05161010051604080517f8b73c3c69bb8fe3d512ecc4cf759cc79239f7b179b0ffacaa9a75d522b39400f60208201529081019290925260608201524660808201523060a082015260009060c00160405160208183030381529060405280519060200120905090565b60805250503060c05262000158600033620001fe565b620001847fa49807205ce4d355092ef5a8a18f56e8913cf4a201fbe287825b095693c2177533620001fe565b600580546001600160a01b0319166001600160a01b03929092169190911790556200047d565b6000602083511015620001ca57620001c2836200029f565b9050620001f8565b82620001e183620002eb60201b620011011760201c565b8151620001f29260200190620002ee565b5060ff90505b92915050565b6000828152602081815260408083206001600160a01b038516845290915290205460ff166200029b576000828152602081815260408083206001600160a01b03851684529091529020805460ff191660011790556200025a3390565b6001600160a01b0316816001600160a01b0316837f2f8788117e7eff1d82e926ec794901d17c78024a50270940304540a733656f0d60405160405180910390a45b5050565b600080829050601f81511115620002d6578260405163305a27a960e01b8152600401620002cd9190620003c6565b60405180910390fd5b8051620002e3826200041e565b179392505050565b90565b828054620002fc9062000446565b90600052602060002090601f0160209004810192826200032057600085556200036b565b82601f106200033b57805160ff19168380011785556200036b565b828001600101855582156200036b579182015b828111156200036b5782518255916020019190600101906200034e565b50620003799291506200037d565b5090565b5b808211156200037957600081556001016200037e565b600060208284031215620003a757600080fd5b81516001600160a01b0381168114620003bf57600080fd5b9392505050565b600060208083528351808285015260005b81811015620003f557858101830151858201604001528201620003d7565b8181111562000408576000604083870101525b50601f01601f1916929092016040019392505050565b8051602080830151919081101562000440576000198160200360031b1b821691505b50919050565b600181811c908216806200045b57607f821691505b602082108114156200044057634e487b7160e01b600052602260045260246000fd5b60805160a05160c05160e051610100516101205161014051612681620004d86000396000610b1a01526000610aef01526000611812015260006117ea015260006117450152600061176f0152600061179901526126816000f3fe6080604052600436106101445760003560e01c806375b238fc116100b6578063a217fddf1161006f578063a217fddf1461037e578063bc063e1a14610393578063d547741f146103a9578063e236a6ce146103c9578063e949580e146103e9578063f973a2091461042457600080fd5b806375b238fc146102cb57806384b0196e146102ed57806387b4404d1461031557806391d14854146103285780639e281a98146103485780639ed3edf01461036857600080fd5b80633408e470116101085780633408e4701461021857806336568abe1461022b5780633ccfd60b1461024b57806351452fdb146102605780635bbbed881461029857806368ca883a146102ab57600080fd5b806301ffc9a714610150578063096a8ab7146101855780631317190f146101a7578063248a9ca3146101ba5780632f2ff15d146101f857600080fd5b3661014b57005b600080fd5b34801561015c57600080fd5b5061017061016b366004611d6e565b610458565b60405190151581526020015b60405180910390f35b34801561019157600080fd5b506101a56101a0366004611d98565b61048f565b005b6101a56101b5366004611f37565b61050f565b3480156101c657600080fd5b506101ea6101d5366004611d98565b60009081526020819052604090206001015490565b60405190815260200161017c565b34801561020457600080fd5b506101a5610213366004612054565b610593565b34801561022457600080fd5b50466101ea565b34801561023757600080fd5b506101a5610246366004612054565b6105bd565b34801561025757600080fd5b506101a5610637565b34801561026c57600080fd5b5061028061027b366004612084565b61067b565b6040516001600160a01b03909116815260200161017c565b6101a56102a63660046120d3565b610705565b3480156102b757600080fd5b50600554610280906001600160a01b031681565b3480156102d757600080fd5b506101ea60008051602061262c83398151915281565b3480156102f957600080fd5b50610302610ae1565b60405161017c9796959493929190612191565b6101a56103233660046120d3565b610b6a565b34801561033457600080fd5b50610170610343366004612054565b610edf565b34801561035457600080fd5b506101a5610363366004612227565b610f08565b34801561037457600080fd5b506101ea60045481565b34801561038a57600080fd5b506101ea600081565b34801561039f57600080fd5b506101ea6101f481565b3480156103b557600080fd5b506101a56103c4366004612054565b610fa9565b3480156103d557600080fd5b506101706103e4366004612084565b610fce565b3480156103f557600080fd5b50610170610404366004612253565b805160208183018101805160068252928201919093012091525460ff1681565b34801561043057600080fd5b506101ea7f8bc157fc0bfde343ae15358953e71472b724dd0074471eddbe3ea4a83af6768081565b60006001600160e01b03198216637965db0b60e01b148061048957506301ffc9a760e01b6001600160e01b03198316145b92915050565b60008051602061262c8339815191526104a781611104565b6101f48211156105095760405162461bcd60e51b815260206004820152602260248201527f4f50454e4d41524b3a205472616e73616374696f6e2066656520696e76616c69604482015261321760f11b60648201526084015b60405180910390fd5b50600455565b60005b815181101561058f5761057d82828151811061053057610530612288565b60200260200101516000015183838151811061054e5761054e612288565b60200260200101516020015184848151811061056c5761056c612288565b602002602001015160400151610b6a565b80610587816122b4565b915050610512565b5050565b6000828152602081905260409020600101546105ae81611104565b6105b88383611111565b505050565b6001600160a01b038116331461062d5760405162461bcd60e51b815260206004820152602f60248201527f416363657373436f6e74726f6c3a2063616e206f6e6c792072656e6f756e636560448201526e103937b632b9903337b91039b2b63360891b6064820152608401610500565b61058f8282611195565b60008051602061262c83398151915261064f81611104565b60405133904780156108fc02916000818181858888f1935050505015801561058f573d6000803e3d6000fd5b6000806106f17f8bc157fc0bfde343ae15358953e71472b724dd0074471eddbe3ea4a83af67680856000015186602001518760400151886060015189608001518a60a001516040516020016106d69796959493929190612307565b604051602081830303815290604052805190602001206111fa565b90506106fd8184611227565b949350505050565b61070d61124b565b60068160405161071d9190612352565b9081526040519081900360200190205460ff161561074d5760405162461bcd60e51b81526004016105009061236e565b600082604001511161079c5760405162461bcd60e51b815260206004820152601860248201527727a822a726a0a9259d1024b73b30b634b210383934b1b29760411b6044820152606401610500565b428260800151116107bf5760405162461bcd60e51b8152600401610500906123af565b60018260a0015160018111156107d7576107d76122cf565b146108435760405162461bcd60e51b815260206004820152603660248201527f4f50454e4d41524b3a204f726465722074797065206d757374206265204f666660448201527532b9103337b91037b33332b910333ab731ba34b7b71760511b6064820152608401610500565b826001600160a01b0316610857838361067b565b6001600160a01b0316146108b85760405162461bcd60e51b815260206004820152602260248201527f4f50454e4d41524b3a20496e76616c6964206275796572207369676e61747572604482015261329760f11b6064820152608401610500565b815160208301516040516331a9108f60e11b8152600481019190915233916001600160a01b031690636352211e9060240160206040518083038186803b15801561090157600080fd5b505afa158015610915573d6000803e3d6000fd5b505050506040513d601f19601f8201168201806040525081019061093991906123f5565b6001600160a01b03161461098f5760405162461bcd60e51b815260206004820152601e60248201527f4f50454e4d41524b3a2053656c6c6572206973206e6f74206f776e65722e00006044820152606401610500565b60006109b66103e86109b085604001516004546112a590919063ffffffff16565b906112b8565b905060006109d18285604001516112c490919063ffffffff16565b6005549091506109ec906001600160a01b03168633846112d0565b600554610a04906001600160a01b03168630856112d0565b8351610a169033878760200151611400565b6001600684604051610a289190612352565b908152604051908190036020018120805492151560ff1990931692909217909155600190600690610a5a908690612352565b908152602001604051809103902060006101000a81548160ff0219169083151502179055507fe23d2e48aa0800ddf7b0b33b6baac6233152dc419117c207ec75d9a9f2cad87a8460a00151856000015186602001518760400151338a8a60800151604051610ace9796959493929190612412565b60405180910390a150506105b860018055565b600060608082808083610b157f00000000000000000000000000000000000000000000000000000000000000006002611534565b610b407f00000000000000000000000000000000000000000000000000000000000000006003611534565b60408051600080825260208201909252600f60f81b9b939a50919850469750309650945092509050565b610b7261124b565b600681604051610b829190612352565b9081526040519081900360200190205460ff1615610bb25760405162461bcd60e51b81526004016105009061236e565b6000826040015111610c015760405162461bcd60e51b815260206004820152601860248201527727a822a726a0a9259d1024b73b30b634b210383934b1b29760411b6044820152606401610500565b42826080015111610c245760405162461bcd60e51b8152600401610500906123af565b60008260a001516001811115610c3c57610c3c6122cf565b14610ca45760405162461bcd60e51b815260206004820152603260248201527f4f50454e4d41524b3a204f726465722074797065206d75737420626520427579604482015271103337b910313abc90333ab731ba34b7b71760711b6064820152608401610500565b826001600160a01b0316610cb8838361067b565b6001600160a01b031614610d1a5760405162461bcd60e51b815260206004820152602360248201527f4f50454e4d41524b3a20496e76616c69642073656c6c6572207369676e61747560448201526239329760e91b6064820152608401610500565b815160208301516040516331a9108f60e11b815260048101919091526001600160a01b03858116921690636352211e9060240160206040518083038186803b158015610d6557600080fd5b505afa158015610d79573d6000803e3d6000fd5b505050506040513d601f19601f82011682018060405250810190610d9d91906123f5565b6001600160a01b031614610df35760405162461bcd60e51b815260206004820152601e60248201527f4f50454e4d41524b3a2053656c6c6572206973206e6f74206f776e65722e00006044820152606401610500565b6000610e146103e86109b085604001516004546112a590919063ffffffff16565b90506000610e2f8285604001516112c490919063ffffffff16565b9050610e3b85826115d8565b610e4530836115d8565b610e59846000015186338760200151611400565b6001600684604051610e6b9190612352565b908152602001604051809103902060006101000a81548160ff0219169083151502179055507fe23d2e48aa0800ddf7b0b33b6baac6233152dc419117c207ec75d9a9f2cad87a8460a0015185600001518660200151876040015189338a60800151604051610ace9796959493929190612412565b6000918252602082815260408084206001600160a01b0393909316845291905290205460ff1690565b60008051602061262c833981519152610f2081611104565b60405163a9059cbb60e01b81523360048201526024810183905283906001600160a01b0382169063a9059cbb90604401602060405180830381600087803b158015610f6a57600080fd5b505af1158015610f7e573d6000803e3d6000fd5b505050506040513d601f19601f82011682018060405250810190610fa2919061245c565b5050505050565b600082815260208190526040902060010154610fc481611104565b6105b88383611195565b600033610fdb848461067b565b6001600160a01b0316146110315760405162461bcd60e51b815260206004820152601c60248201527f4f50454e4d41524b3a20496e76616c6964207369676e61747572652e000000006044820152606401610500565b60016006836040516110439190612352565b908152602001604051809103902060006101000a81548160ff0219169083151502179055507fe05ef08d4da6635dc232d8d5fb6d2d25f4bd7fc2d86e77fa3fa6bc67b223ff6b8360a00151846000015185602001518660400151876060015188608001516040516110b99695949392919061247e565b60405180910390a150600192915050565b60006020835110156110e6576110df836116a1565b9050610489565b828281516110f79260200190611cd5565b5060ff9050610489565b90565b61110e81336116df565b50565b61111b8282610edf565b61058f576000828152602081815260408083206001600160a01b03851684529091529020805460ff191660011790556111513390565b6001600160a01b0316816001600160a01b0316837f2f8788117e7eff1d82e926ec794901d17c78024a50270940304540a733656f0d60405160405180910390a45050565b61119f8282610edf565b1561058f576000828152602081815260408083206001600160a01b0385168085529252808320805460ff1916905551339285917ff6391f5c32d9c69d2a47ea670b442974b53935d1edc7fd64eb21e047a839171b9190a45050565b6000610489611207611738565b8360405161190160f01b8152600281019290925260228201526042902090565b60008060006112368585611868565b91509150611243816118ae565b509392505050565b6002600154141561129e5760405162461bcd60e51b815260206004820152601f60248201527f5265656e7472616e637947756172643a207265656e7472616e742063616c6c006044820152606401610500565b6002600155565b60006112b182846124bd565b9392505050565b60006112b182846124dc565b60006112b182846124fe565b604080516001600160a01b0385811660248301528481166044830152606480830185905283518084039091018152608490920183526020820180516001600160e01b03166323b872dd60e01b17905291516000928392908816916113349190612352565b6000604051808303816000865af19150503d8060008114611371576040519150601f19603f3d011682016040523d82523d6000602084013e611376565b606091505b50915091508180156113a05750805115806113a05750808060200190518101906113a0919061245c565b6113f85760405162461bcd60e51b8152602060048201526024808201527f5472616e7366657248656c7065723a205452414e534645525f46524f4d5f46416044820152631253115160e21b6064820152608401610500565b505050505050565b604080516001600160a01b0385811660248301528481166044830152606480830185905283518084039091018152608490920183526020820180516001600160e01b0316632142170760e11b17905291516000928392908816916114649190612352565b6000604051808303816000865af19150503d80600081146114a1576040519150601f19603f3d011682016040523d82523d6000602084013e6114a6565b606091505b50915091508180156114d05750805115806114d05750808060200190518101906114d0919061245c565b6113f85760405162461bcd60e51b815260206004820152602f60248201527f5472616e7366657248656c7065723a205452414e534645525f46524f4d5f4e4660448201526e1517d15490cdcc8c57d19052531151608a1b6064820152608401610500565b606060ff8314611547576110df836119fc565b81805461155390612515565b80601f016020809104026020016040519081016040528092919081815260200182805461157f90612515565b80156115cc5780601f106115a1576101008083540402835291602001916115cc565b820191906000526020600020905b8154815290600101906020018083116115af57829003601f168201915b50505050509050610489565b604080516000808252602082019092526001600160a01b0384169083906040516116029190612352565b60006040518083038185875af1925050503d806000811461163f576040519150601f19603f3d011682016040523d82523d6000602084013e611644565b606091505b50509050806105b85760405162461bcd60e51b815260206004820152602360248201527f5472616e7366657248656c7065723a204554485f5452414e534645525f46414960448201526213115160ea1b6064820152608401610500565b600080829050601f815111156116cc578260405163305a27a960e01b81526004016105009190612550565b80516116d782612563565b179392505050565b6116e98282610edf565b61058f576116f681611a3b565b611701836020611a4d565b604051602001611712929190612587565b60408051601f198184030181529082905262461bcd60e51b825261050091600401612550565b6000306001600160a01b037f00000000000000000000000000000000000000000000000000000000000000001614801561179157507f000000000000000000000000000000000000000000000000000000000000000046145b156117bb57507f000000000000000000000000000000000000000000000000000000000000000090565b611863604080517f8b73c3c69bb8fe3d512ecc4cf759cc79239f7b179b0ffacaa9a75d522b39400f60208201527f0000000000000000000000000000000000000000000000000000000000000000918101919091527f000000000000000000000000000000000000000000000000000000000000000060608201524660808201523060a082015260009060c00160405160208183030381529060405280519060200120905090565b905090565b60008082516041141561189f5760208301516040840151606085015160001a61189387828585611be9565b945094505050506118a7565b506000905060025b9250929050565b60008160048111156118c2576118c26122cf565b14156118cb5750565b60018160048111156118df576118df6122cf565b141561192d5760405162461bcd60e51b815260206004820152601860248201527f45434453413a20696e76616c6964207369676e617475726500000000000000006044820152606401610500565b6002816004811115611941576119416122cf565b141561198f5760405162461bcd60e51b815260206004820152601f60248201527f45434453413a20696e76616c6964207369676e6174757265206c656e677468006044820152606401610500565b60038160048111156119a3576119a36122cf565b141561110e5760405162461bcd60e51b815260206004820152602260248201527f45434453413a20696e76616c6964207369676e6174757265202773272076616c604482015261756560f01b6064820152608401610500565b60606000611a0983611cad565b604080516020808252818301909252919250600091906020820181803683375050509182525060208101929092525090565b60606104896001600160a01b03831660145b60606000611a5c8360026124bd565b611a679060026125fc565b67ffffffffffffffff811115611a7f57611a7f611db1565b6040519080825280601f01601f191660200182016040528015611aa9576020820181803683370190505b509050600360fc1b81600081518110611ac457611ac4612288565b60200101906001600160f81b031916908160001a905350600f60fb1b81600181518110611af357611af3612288565b60200101906001600160f81b031916908160001a9053506000611b178460026124bd565b611b229060016125fc565b90505b6001811115611b9a576f181899199a1a9b1b9c1cb0b131b232b360811b85600f1660108110611b5657611b56612288565b1a60f81b828281518110611b6c57611b6c612288565b60200101906001600160f81b031916908160001a90535060049490941c93611b9381612614565b9050611b25565b5083156112b15760405162461bcd60e51b815260206004820181905260248201527f537472696e67733a20686578206c656e67746820696e73756666696369656e746044820152606401610500565b6000807f7fffffffffffffffffffffffffffffff5d576e7357a4501ddfe92f46681b20a0831115611c205750600090506003611ca4565b6040805160008082526020820180845289905260ff881692820192909252606081018690526080810185905260019060a0016020604051602081039080840390855afa158015611c74573d6000803e3d6000fd5b5050604051601f1901519150506001600160a01b038116611c9d57600060019250925050611ca4565b9150600090505b94509492505050565b600060ff8216601f81111561048957604051632cd44ac360e21b815260040160405180910390fd5b828054611ce190612515565b90600052602060002090601f016020900481019282611d035760008555611d49565b82601f10611d1c57805160ff1916838001178555611d49565b82800160010185558215611d49579182015b82811115611d49578251825591602001919060010190611d2e565b50611d55929150611d59565b5090565b5b80821115611d555760008155600101611d5a565b600060208284031215611d8057600080fd5b81356001600160e01b0319811681146112b157600080fd5b600060208284031215611daa57600080fd5b5035919050565b634e487b7160e01b600052604160045260246000fd5b6040516060810167ffffffffffffffff81118282101715611dea57611dea611db1565b60405290565b604051601f8201601f1916810167ffffffffffffffff81118282101715611e1957611e19611db1565b604052919050565b6001600160a01b038116811461110e57600080fd5b600060c08284031215611e4857600080fd5b60405160c0810181811067ffffffffffffffff82111715611e6b57611e6b611db1565b6040529050808235611e7c81611e21565b808252506020830135602082015260408301356040820152606083013560608201526080830135608082015260a083013560028110611eba57600080fd5b60a0919091015292915050565b600082601f830112611ed857600080fd5b813567ffffffffffffffff811115611ef257611ef2611db1565b611f05601f8201601f1916602001611df0565b818152846020838601011115611f1a57600080fd5b816020850160208301376000918101602001919091529392505050565b60006020808385031215611f4a57600080fd5b823567ffffffffffffffff80821115611f6257600080fd5b818501915085601f830112611f7657600080fd5b813581811115611f8857611f88611db1565b8060051b611f97858201611df0565b9182528381018501918581019089841115611fb157600080fd5b86860192505b8383101561204757823585811115611fcf5760008081fd5b8601610100818c03601f1901811315611fe85760008081fd5b611ff0611dc7565b89830135611ffd81611e21565b8152604061200d8e858301611e36565b828c01529183013591888311156120245760008081fd5b6120328e8c85870101611ec7565b90820152845250509186019190860190611fb7565b9998505050505050505050565b6000806040838503121561206757600080fd5b82359150602083013561207981611e21565b809150509250929050565b60008060e0838503121561209757600080fd5b6120a18484611e36565b915060c083013567ffffffffffffffff8111156120bd57600080fd5b6120c985828601611ec7565b9150509250929050565b600080600061010084860312156120e957600080fd5b83356120f481611e21565b92506121038560208601611e36565b915060e084013567ffffffffffffffff81111561211f57600080fd5b61212b86828701611ec7565b9150509250925092565b60005b83811015612150578181015183820152602001612138565b8381111561215f576000848401525b50505050565b6000815180845261217d816020860160208601612135565b601f01601f19169290920160200192915050565b60ff60f81b881681526000602060e0818401526121b160e084018a612165565b83810360408501526121c3818a612165565b606085018990526001600160a01b038816608086015260a0850187905284810360c0860152855180825283870192509083019060005b81811015612215578351835292840192918401916001016121f9565b50909c9b505050505050505050505050565b6000806040838503121561223a57600080fd5b823561224581611e21565b946020939093013593505050565b60006020828403121561226557600080fd5b813567ffffffffffffffff81111561227c57600080fd5b6106fd84828501611ec7565b634e487b7160e01b600052603260045260246000fd5b634e487b7160e01b600052601160045260246000fd5b60006000198214156122c8576122c861229e565b5060010190565b634e487b7160e01b600052602160045260246000fd5b6002811061230357634e487b7160e01b600052602160045260246000fd5b9052565b8781526001600160a01b038716602082015260408101869052606081018590526080810184905260a0810183905260e0810161234660c08301846122e5565b98975050505050505050565b60008251612364818460208701612135565b9190910192915050565b60208082526021908201527f4f50454e4d41524b3a205369676e617475726520616c726561647920757365646040820152601760f91b606082015260800190565b60208082526026908201527f4f50454e4d41524b3a2045787069726564206c697374696e67206f7220736f6c604082015265321037baba1760d11b606082015260800190565b60006020828403121561240757600080fd5b81516112b181611e21565b60e08101612420828a6122e5565b6001600160a01b03978816602083015260408201969096526060810194909452918516608084015290931660a082015260c00191909152919050565b60006020828403121561246e57600080fd5b815180151581146112b157600080fd5b60c0810161248c82896122e5565b6001600160a01b0396909616602082015260408101949094526060840192909252608083015260a090910152919050565b60008160001904831182151516156124d7576124d761229e565b500290565b6000826124f957634e487b7160e01b600052601260045260246000fd5b500490565b6000828210156125105761251061229e565b500390565b600181811c9082168061252957607f821691505b6020821081141561254a57634e487b7160e01b600052602260045260246000fd5b50919050565b6020815260006112b16020830184612165565b8051602080830151919081101561254a5760001960209190910360031b1b16919050565b7f416363657373436f6e74726f6c3a206163636f756e74200000000000000000008152600083516125bf816017850160208801612135565b7001034b99036b4b9b9b4b733903937b6329607d1b60179184019182015283516125f0816028840160208801612135565b01602801949350505050565b6000821982111561260f5761260f61229e565b500190565b6000816126235761262361229e565b50600019019056fea49807205ce4d355092ef5a8a18f56e8913cf4a201fbe287825b095693c21775a26469706673582212200f6c2c53111f709503629eea8336aeb89cbef71daadd249a8efab44544fe9dca64736f6c63430008090033",
  "linkReferences": {},
  "deployedLinkReferences": {}
}